:020000040800F2
:10000000D84700207D020008CF4B0008A93E000819
:10001000CD4B00084D160008F15400080000000008
:10002000000000000000000000000000C101000806
:10003000611700080000000015020008D14E0008FA
:10004000970200089702000897020008970200082C
:100050009702000897020008191800089702000884
:10006000970200089702000897020008970200080C
:1000700097020008970200089702000897020008FC
:1000800097020008970200089702000897020008EC
:1000900097020008970200089702000897020008DC
:1000A00097020008ED4F0008970200089702000829
:1000B00097020008970200089702000897020008BC
:1000C00097020008970200089702000897020008AC
:1000D00097020008E55400089702000897020008FC
:1000E000970200089702000897020008970200088C
:1000F000970200089702000897020008970200087C
:10010000970200089702000897020008970200086B
:10011000970200089702000897020008970200085B
:10012000970200089702000897020008970200084B
:10013000970200089702000897020008970200083B
:10014000970200089702000897020008970200082B
:10015000970200089702000897020008970200081B
:10016000970200089702000897020008970200080B
:10017000970200089702000897020008000000009C
:1001800097020008970200089702000897020008EB
:1001900097020008970200089702000897020008DB
:1001A000970200089702000897020008DFF80CD0B9
:1001B00000F06EFB00480047F1600008D8470020BF
:1001C0002B4B19680868B0E8F04F80F30988BFF33B
:1001D0006F8F4FF0000080F311887047000000001F
:1001E00006480068006880F3088862B661B6BFF30D
:1001F0004F8FBFF36F8F00DF00BF00BF08ED00E03F
:10020000DFF80C00016841F470010160704700BF25
:1002100088ED00E0EFF30980BFF36F8F144B1A688D
:100220001EF0100F08BF20ED108A20E9F04F10607B
:1002300008B44FF0500080F31188BFF34F8FBFF325
:100240006F8F06F0EDFC4FF0000080F3118808BCC2
:1002500019680868B0E8F04F1EF0100F08BFB0EC46
:10026000108A80F30988BFF36F8F704700BF00BF0B
:10027000D0000020EFF3058070470000064880475B
:1002800006480047FEE7FEE7FEE7FEE7FEE7FEE77B
:10029000FEE7FEE7FEE7FEE7994F0008AD01000824
:1002A0002DE9F05F0546002092469B4688460646AB
:1002B000814640241BE0284641464746224600F03E
:1002C00098F853465A46C01A914110D31146184621
:1002D000224600F07FF82D1A67EB01084F462246B0
:1002E0000120002100F076F817EB00094E41201E96
:1002F000A4F10104DFDC484631462A464346BDE806
:10030000F09F40EA01039B0703D009E008C9121FD0
:1003100008C0042AFAD203E011F8013B00F8013BBF
:10032000521EF9D27047D2B201E000F8012B491EEB
:10033000FBD270470022F6E710B513460A46044682
:100340001946FFF7F0FF204610BD00F0004230F0E4
:1003500000400AD0C10D01F56071C0F3160042EAF9
:100360000151C20840071143704700200146704701
:1003700001F0004330B421F0004150EA010206D000
:100380000A0DA2F56072C1F31301002A02DC30BC31
:1003900000207047440F44EAC104C100E01830BC9B
:1003A00000EBC25000F084B830B50B460146002087
:1003B0002022012409E021FA02F59D4205D303FA27
:1003C00002F5491B04FA02F52844151EA2F10102A8
:1003D000F1DC30BD202A04DB203A00FA02F10020D3
:1003E00070479140C2F1200320FA03F31943904073
:1003F0007047202A04DB203A21FA02F000217047DE
:1004000021FA02F3D040C2F120029140084319467C
:10041000704700000FB4002300B589B00CA900910B
:100420000B996FF00042CB601E4B06931E4B079357
:100430000423CDE901321D4A089202466B46002092
:1004400000F0E4FA09B05DF814FB70B586B006461A
:100450004FF0FF300091CDE90101002015460C4618
:1004600004903246694604A8FFF7D4FF0246049878
:10047000211825B108B1084600E0204628600498FC
:1004800000280DD0002A02DD0098884208D0081B01
:100490000094CDE901043246694604A8FFF7BAFF8B
:1004A00006B070BD450C0008630C0008D9080008B0
:1004B0000029A8BF7047401C490008BF20F0010078
:1004C000704710B4B0FA80FC00FA0CF050EA010456
:1004D00004BF10BC704749B1CCF1200421FA04F4E8
:1004E00011FA0CF118BF012121430843A3EB0C01C1
:1004F000CB1D4FEA00614FEA102042BF002010BC24
:10050000704700EBC35010440029A4BF10BC7047D3
:10051000401C490008BF20F0010010BC70472DE9C5
:10052000FE4F804681EA0300C00F0C46009021F088
:10053000004123F00045B8EB0200A94105D2404636
:10054000214690461C460B46024623F000401043CD
:1005500047D0270DC7F30A00C3F30A510290401A8F
:10056000019040286BDAC3F3130040F4801B00981D
:10057000924620B10023D2EB030A63EB0B0B0198E8
:100580005946C0F140025046FFF724FF06460D468B
:1005900050465946019A00F08DF910EB0800614170
:1005A000002487EA115284EAE7731A4340D0009A84
:1005B00062B3019A012A4FEA075215DC001B61EB76
:1005C00002014FF0004202EA0752CDE90042001C4E
:1005D00041F5801132462B4600F063FB03B0BDE8C5
:1005E000F08F40462146F9E7001B61EB0201001C39
:1005F00041F5801300185B412018A2F5001747EB66
:10060000030140EAD570B6196D4111E06D084FEA5B
:10061000360645EAC0754FEA0752001B61EB02013E
:10062000001C41F5801149084FEA30000019514182
:1006300032462B4603B0BDE8F04F00F023BB0098D4
:10064000012240000023D0EB020263EBE07300982C
:1006500021464FEAE074B8EB000061EB0401E9E7E2
:1006600083F000435BE781F0004158E72DE9FE4F3E
:1006700081EA030404F0004421F0004100944FF0AB
:10068000000B23F0004350EA01045ED052EA030459
:100690005BD0C3F30A54C1F30A552C44A4F2F334DB
:1006A0000194A0FB0254C1F3130141F48011C3F380
:1006B000130343F4801301FB024400FB034E840A3E
:1006C000970A44EA815447EA8357A4FB07680295D6
:1006D0008D0A05FB07854FEA932C04FB0C54270574
:1006E000029D4FEA065847EA1637B5EB08056EEB50
:1006F000070C870E920E47EA811742EA8312A7FB86
:100700000201B6EB0B0164EB00042B0D43EA0C3342
:100710005E1844EB1C50DA465146E7FB0201C5F374
:1007200013044FEA0B3343EA14534FEA0432019C9B
:1007300043EA0603A4F10C040294009CCDE900B442
:1007400000F0AFFA03B0BDE8F08F00200146F9E7F2
:100750002DE9F04D81EA030404F0004B21F000453F
:1007600014464FF0000A23F0004150EA050220D061
:1007700054EA01021DD0C5F30A570246C5F313031C
:10078000C1F31300C1F30A5640F4801543F48013FB
:10079000A7EB0608101BD64608F2FD3873EB0500E0
:1007A00002D308F1010801E092185B41B8F1000F93
:1007B00003DA00200146BDE8F08D00204FF48011DF
:1007C000064684460EE0171B73EB050705D3121B84
:1007D00063EB050306434CEA010C49084FEA30007D
:1007E00092185B4150EA0107EDD152EA030012D0A2
:1007F00082EA040083EA0501084305D0101BAB41DF
:1008000006D20122002306E000224FF0004302E05E
:100810006FF0010253101AEB06004CEB085110EB7D
:100820000A0041EB0B01BDE8F04D00F02BBAC1F31B
:100830000A52C1F3130140F2FF3341F480119A428E
:1008400002DA00200146704740F233439A42A2F296
:10085000334202DC5242FFF7CCBDFFF7BBBD0000C4
:1008600030B5041E71F1000404DB4FF00044404237
:1008700064EB0101141E73F1000405DB1C464FF00C
:100880000043524263EB0403994208BF904230BDDB
:10089000064C074D06E0E06840F0010394E80700CD
:1008A00098471034AC42F6D3FFF784FC449A000812
:1008B000649A0008202A06DBCB17203A41FA02F09E
:1008C00043EAE07306E041FA02F3D040C2F12002AD
:1008D0009140084319467047C0B24FF4F05100F000
:1008E0002FBA00002DE9FF4F087883B09946FF2802
:1008F00005D0491C2D2804D00024002008E0002049
:100900000BE00124F9E700EB800003EB4000491CF9
:100910000B78FF2BF7D104B14042002302931478E7
:1009200019461D462D2C01D02B2C04D1521C2D2CE8
:1009300013D000240294AA461478FF2C0FD00A2565
:10094000A3FB057801FB05814FF0000C03FB0C11A4
:10095000521CE3194AEB0101EEE70124EAE7814466
:1009600053EA010002D019F5C87F06DA0398002186
:10097000C0E9001107B0BDE8F08F0025AE4E2F464C
:10098000DFF8B882184600F0EFF9CDE90001B9F1BF
:10099000000002DAC9F1000400E004460023A74A7F
:1009A0001AEB030B42EB045A12E0E00707D02A4689
:1009B000334638464146FFF759FE074688462A46E1
:1009C000334610461946FFF751FE05460E466410A1
:1009D000002CEAD1DDE90001B9F1000F5A46534677
:1009E00006DAFFF7B5FE3A464346FFF7B1FE05E0EB
:1009F000FFF73CFE3A464346FFF738FE029A0AB13B
:100A000081F00041039AC2E90001B3E72DE9FF4FED
:100A10001F468DB0D7E901464FF0FF382E204546DE
:100A20004FF000090B90B9696D1C0E988847396A20
:100A3000824688470028F6D1BAF1FF3F0AD024F455
:100A4000D064002E11DDBAF12B0F08D0BAF12D0FB2
:100A50000BD102E0404611B08DE744F48064B969DF
:100A60006D1C0E9888478246761E6946600501D542
:100A70002D2000E02B208DF8000001F1010B0DF17D
:100A8000200809E0B9696D1C0E98884782460F98C6
:100A900044F40074761E0560002E02DDBAF1300FBA
:100AA000F0D00B998A453ED144F0800406E00F99BE
:100AB000681CA9F1010944F400740860B9696D1C4F
:100AC000761E0E98884782463028F0D02BE00B998E
:100AD0008A4505D1200603D444F08004761E18E030
:100AE000504604F003FE08B30DF11301761E44F4E2
:100AF00000748B4508D2AAF130000BF8010B2006D8
:100B000007D5A9F1010003E0200602D409F1010094
:100B10008146A00502D50F99681C0860B9696D1C53
:100B20000E9888478246002ED1DC53E0002E51DD1E
:100B3000BAF1650F02D0BAF1450F4BD1A00549D5E6
:100B4000B9696D1C24F44074761E0E98884782465D
:100B5000002E0CDD2B2804D0BAF12D0F07D144F460
:100B60008074B9696D1C0E9888478246761EE00530
:100B700001D52D2100E02B2108F8011BCDF82C8098
:100B800021E00DF12901761E44F4007488450CD251
:100B9000AAF1300010F0FF0088F8000002D10B9994
:100BA000884509D908F1010806E0E00501D5244887
:100BB00001E042F20F708146B9696D1C0E988847BA
:100BC00082460F980560002E04DD504604F08EFD2D
:100BD0000028D6D1F9690E988847FF208BF80000CD
:100BE00088F800000020069007904B466A4608A946
:100BF00006A8FFF777FEA00502D46FF001002AE7F0
:100C000014F0240F0AD0E00714D1DDE90612386889
:100C1000031D3B600068C0E900120BE0DDE906013E
:100C2000FFF7A6FB0146E00704D13868021D3A60D1
:100C30000068016028460EE7000014400000F03F05
:100C4000F1D8FFFF426842B1016811F8013B23B1BE
:100C5000521EC0E90012184670470121C160881E6B
:100C6000704742685AB1C368016843B983688B42D0
:100C700005D0491E521CC0E90012002070474FF0F9
:100C8000FF30704710B5141E73F1000408DA401CE1
:100C900041F1000192185B411A4301D120F001009B
:100CA00010BD2DE9F04D92469B4611B1B1FA81F28B
:100CB00002E0B0FA80F220329046FFF78BFB044648
:100CC0000F4640EA0A0041EA0B0153465A460843E0
:100CD00013D0114653EA010019D0C8F14002504622
:100CE000FFF787FB05460E46504659464246FFF73A
:100CF00071FB084305D0012004E020463946BDE8D9
:100D0000F08D0020054346EAE0762C4337430A98ED
:100D10006305E40AA0EB08000022FD0A44EA4754F8
:100D20000A3002D500200146E9E7010510196941A2
:100D3000DDE9084500196941BDE8F04DA2E7000072
:100D40007F2801D9002208E0064A02EB5002C007C2
:100D5000127800D1120902F00F02012090400840E1
:100D600070470000E49900080EB540F23342029249
:100D70000022CDE900221346FFF793FF03B000BD28
:100D800070B58C1810F8015B15F0070301D110F84D
:100D9000013B2A1106D110F8012B03E010F8016B7A
:100DA00001F8016B5B1EF9D12B0705D40023521EFD
:100DB0000DD401F8013BFAE710F8013BCB1A921C65
:100DC00003E013F8015B01F8015B521EF9D5A14263
:100DD000D8D3002070BD00007CB5054600F04AF96C
:100DE000044600F041F902460020CDE9000507481D
:100DF000074B006800EB800101EBC00103EB8101B0
:100E00002346C96D00F09EFD7CBD00001800002047
:100E1000DC0100200A4B30B41B6803EB4304094B90
:100E200003EB84039B68DD881C689B88DB1DDB0863
:100E3000203A13FB02F205FB024230BC00F092BCE8
:100E400018000020F4020020034840688068002851
:100E500000D0004770470000180000202DE9F0473F
:100E60000446002799468A461546B846104601E0D2
:100E700008F1010810F8011B0029F9D100F0F4F87D
:100E8000254A264E4B461168B9F1010F01EB41018D
:100E900006EB810189688988B0FBF1F002D0022B52
:100EA0000BD105E0A0EB0800484304EB500003E041
:100EB000A0EB080000FB014084B2904600F0D4F89B
:100EC0000146D8F8000000EB400006EB8000806887
:100ED000808807FB101189B2814213D3012012E0F0
:100EE00051462046FFF796FFD8F800007F1C00EB24
:100EF000400006EB8000BFB280686D1C80882044F3
:100F000084B2DBE700202A780AB1012100E0002149
:100F10000842E5D1BDE8F08718000020F402002067
:100F200010B50A46034600F091F8C088BDE81040AD
:100F3000584381B203230020FFF790BF7CB51446CD
:100F40000D46064600F090F800FB05610C480D4B7D
:100F5000006800EB800202EBC00203EB820203F5A3
:100F60008C73D26D02EB810100EB400253F822201A
:100F70000023CDE900320123224600F0E3FC7CBDD2
:100F800018000020DC01002070B514460D4606460E
:100F900000F06AF8074905FB0060096801EB81026F
:100FA00002EBC101044A02EB8101C96D41F8204006
:100FB00070BD000018000020DC0100202DE9F04188
:100FC0001C4616460D460746FFF7B8FF281981B2A2
:100FD00032463846FFF7B2FF22462946384600F02F
:100FE00009F8B81922462946BDE8F04180B200F060
:100FF00001B800007CB516460C46054600F034F8F2
:1010000000FB04500E4D296801EB810202EBC10187
:101010000C4A02EB8101C96D01EB800400F024F859
:101020002D68094A05EB4501401E52F82110334650
:10103000CDE9000101222146284600F083FC7CBD59
:1010400018000020DC010020F402002004480549BB
:10105000006800EB400001EB8000806870470000F2
:1010600018000020F402002001484068806A004710
:101070001800002001484068C06A0047180000209E
:1010800070B5214C1F4800252060092060610120B7
:10109000A0611D20E0610320206240F20D1060621B
:1010A00040F24310A06240F21710E06240F2471095
:1010B000206384F8365084F8345004F1E80084F852
:1010C000355008210160C021016104218161C903FB
:1010D000416201F087FD6560A560E560256100F073
:1010E00059F8204601F0F0FB0949084848600068BB
:1010F000804700F005F90648083000F0E7F80020C6
:1011000070BD000000680140DC01002044000020A8
:101110001800002070B58EB000240E4605460094DD
:10112000FFF7A2FFCDE90104FFF7A4FF0996CDE97F
:101130000304FF20CDE905048DF830408DF83140DF
:101140008DF832404FF4C060079007200890FFF7F9
:101150008BFF0A90FFF78EFF0B902A4669460A48DC
:1011600001F070FB094905EB450001EB8002631EAD
:101170005360074B93604FF07F4241F820200248B4
:1011800001F08AFB0EB070BDDC010020F4020020EB
:101190002000002030B5434887B00021026842F0AB
:1011A00080620260006800F0806005903D4814385D
:1011B000026842F400020260026802F40002059232
:1011C000026842F001020260026802F00102059228
:1011D000026842F002020260026802F00202059216
:1011E000026842F004020260026802F00402059202
:1011F000026842F008020260026802F008020592EA
:10120000026842F020020260026802F020020592A9
:10121000026842F040020260006800F04000059061
:1012200041F6580000900220CDE9010103900E2004
:10123000049069461C4800F0D5FE4FF470601B4CCA
:1012400000906946204600F0CDFE4FF49860009073
:101250006946174800F0C6FE4820009069461548C8
:1012600000F0C0FE201500906946134800F0BAFE59
:101270004FF40C60114D00906946284600F0B2FE14
:1012800003200090092004906946204600F0AAFE41
:101290004FF4A05000906946284600F0A3FE07B026
:1012A00030BD00004438024000000240000402400B
:1012B00000080240000C02400014024000180240E6
:1012C0000149086070470000180000200449054AE1
:1012D000096801EB410102EB810188607047000061
:1012E00018000020F40200200349044A096801EBB9
:1012F000410142F82100704718000020F40200204C
:1013000070B51B4819490423016000F13401022221
:1013100007248B60C1E90024C1E903424A618A6164
:101320001021C0E903314021416101260024C0E9B8
:1013300001644FF4C071C0E906149102C0E90814B9
:1013400089008162214600F05BF809490848343180
:1013500001F0F8FF074D08B12E7000E02C7040F24C
:101360006A5000F009F8287870BD0000400100A024
:10137000CC030020300000202DE9F84F1F4C002541
:10138000012608270095C4E90067C4E90265824682
:101390004FF6FF7921464A46A1F1500002F006F8C7
:1013A000012000F0DDFC0220C4E90007C4E9026569
:1013B00021464A46A1F1500001F0F8FF03204FF00A
:1013C0000408E56084E8810121464A46A1F1500005
:1013D00001F0ECFF4FF40C700090C4E90260C4E926
:1013E000008721464A46A1F1500001F0DFFF514637
:1013F000A4F15000BDE8F84F01F0C7BF1C04002065
:1014000030B587B005007DD04D480024016841F01B
:101410000101016000684A4900F0010008390590A7
:10142000086840F480000860086800F480000590B7
:10143000086840F002000860086800F002000590AB
:10144000086840F004000860086800F00400059097
:10145000086840F008000860086800F0080005907F
:10146000086840F010000860086800F0100005905F
:10147000086840F020000860086800F0200005902F
:10148000086840F0400008600868694600F04000C5
:1014900005900220CDE9024001900C2004906020CC
:1014A0000090284800F09EFD0120009069462648E3
:1014B00000F098FD4CF2037000906946234800F05C
:1014C00091FD4FF6837000906946214800F08AFD37
:1014D0004FF63F00009069461E4800F083FD48F239
:1014E0003310009069461C4800F07CFD1B498020A9
:1014F000C1E901408000C860400008618000486187
:10150000800000E01AE0C1E90604C000C1E9080457
:101510000320C1E90A0412480C63086029630846E5
:101520008D6300F087FB0D4800F0B0FB00220F2117
:10153000382001F025FB382001F016FB07B030BD44
:10154000383802400004024000080240000C02400B
:101550000010024000140240001802400C0300205A
:10156000106402407CB52A4C0546E068016982207F
:1015700088472880002849D0E06801AA6946436965
:1015800082209847BDF804000B21A0F5B47080B20A
:10159000ADF80400B0FBF1F020B16188884201D9B8
:1015A000491E88B2BDF8001040F6B832ADF804000C
:1015B000914202D8A1F61E7101E0A1F6D86149421C
:1015C000ADF8001089B20F22B1FBF2F121B12288EF
:1015D000914201D9521E91B2ADF8001062688BB2EF
:1015E000934201D98A1A00E0521A93B2A26890423B
:1015F00001D9821A00E0121A92B21A44052A01D9BE
:10160000C4E90110A08868802089A8807CBD000002
:101610003400002070B50B4D0B4C012628806980EA
:10162000616882208847A0F50061113908D1EC601B
:101630000026216882208847E868C16882208847A0
:10164000304670BD340000207C000020FEE7F0B57D
:101650000468059E656C46EA034305F040451D435A
:1016600065640368DA634268B2F5403F02D00068FF
:10167000C160F0BD01F47F4201F47F0C866801F087
:101680007F4301F47F0701F47F45CCB242EA0C02AC
:10169000BEB1012E16D001F47F02D20CC1F3C401F9
:1016A000022E11D0032E14D0190F3A0D2D0B230941
:1016B0002C0144EA022242EA01321A4300688263A2
:1016C000F0BD1A432243F9E7AB0A5B0143EAC222A9
:1016D00006E0DB0FEC0A640144EA822242EAC332EC
:1016E0000A43EBE701681823CAB2103AB2FBF3F2DF
:1016F000054B6FF30901032A9B5CC36500D9091DE3
:101700008165084670470000C499000810B501467D
:1017100000208B698A6A4FF0C07453B1B3F5005F43
:1017200015D072B1012A0CD0022A0AD0032A09D19D
:1017300004E01AB1012A06D0022A03D1C96AC901FC
:1017400000D5012010BDC96AA142FAD010BD002AFF
:10175000F7D0012AF2D0022AF3D0032AF3D010BD29
:10176000704700002DE9F74FDFF8A4A00026DAF853
:10177000000000EB4001274800EB8100806885886D
:10178000C788E81D834620F00700401B00F0FF09D2
:101790003AE000BF4FEADB010298012901FB060095
:1017A0000BD002290BD0017842780904807841EAF5
:1017B000022141EA000800241FE0007801E00088CF
:1017C00040BA8046F7E7291B49440120491E88405A
:1017D00010EA080FDAF8000000EB40010D4802D0D3
:1017E00050F8212002E000EB810042680098019946
:1017F000204480B2FFF7C8FB641CAC42E3D30198DD
:10180000401C80B2761C0190BE42C3D3BDE8FE8F5F
:1018100018000020F4020020012000F0D7BB704720
:1018200030B5D1E901231A43D1E903352B431A43DB
:101830004B690C681A438B691A43D1E90735012CAF
:10184000496A046807D01A432A436FF30E040A4317
:10185000224302600AE024F4F8442B4321430B4363
:10186000416803606FF30E010A434260002030BDFF
:10187000426942EA4101416100207047F8B51446CF
:101880000546D1E9000210438A686FF01F03C9685A
:1018900003EB421242EA412108430090286100F024
:1018A0008DFC064609E0601C07D024B100F086FCE0
:1018B000801BA04201D90320F8BDA8698006F2D49C
:1018C0000020F8BDF0B56FF00F05D1E9003405EB4D
:1018D00004145B1E23432E018C682F0306EB0424A3
:1018E00023434FEA054C0C8A8E8ACD68097E4FF05F
:1018F0007F4E07EB04440CEB06560EEB0161012A08
:101900000CD082683F1107EB05352B43234333434B
:1019100002F070420B43134383600FE08768084A6C
:1019200017402A03A2F580523243C5683A43234345
:1019300005F070450B432B438260C3600020F0BD6F
:10194000FF0F0FFF2DE9F8430E460746DDE90818A3
:10195000124815464FF4403242600022C0E902218D
:101960000F491C46016000F071F8002814D1394677
:101970000A4800F017F800280ED12B46324641469F
:101980000648009400F02AF9002805D1BDE8F84384
:101990000A21024800F09CB8BDE8F88384020020C8
:1019A00000B0024070B500EB011290F838301832E8
:1019B000012B20D0012580F83850022380F83930DF
:1019C00054680A2C19D0092C17D01389167B1B04D4
:1019D00043EA066323431C4CB1B10168CE6926403B
:1019E0001E43CE6103681168196151680A291ED02F
:1019F00009291CD020E0022070BDD368168903F0AD
:101A00007F4343EA0643E5E70668716A21401943CC
:101A1000716203681168996151680A2901D0092926
:101A20000AD1D168026821F07F41916204E0D16857
:101A3000026821F07F41116280F83950002180F85E
:101A40003810084670BD0000F0FFFC0070B50400BF
:101A500004D094F83900002510B106E0012070BDD3
:101A600084F83850204600F01FF8022084F839002E
:101A700020680168626821F44031114301602068E8
:101A8000416BA26821F00701114341632068016C9A
:101A9000E2686FF30D0111430164E563012084F8EE
:101AA0003900002070BD000008B500680649884272
:101AB00008D10648016841F400010160006800F4A3
:101AC0000000009008BD000000B002403038024025
:101AD0002DE9F84300260446009600680D4600688C
:101AE0004FF00407C0074FF0030825D000F066FB55
:101AF00081461DE04068009010F0210F0FD0009843
:101B0000800603D5E06B40F00200E0630098C00758
:101B100003D0E06B40F00100E063212032E0681C5C
:101B200006D0C5B300F04AFBA0EB0900A8423CD8A0
:101B3000206841688907DDD52068C169890602D41B
:101B4000406A800640D500F039FB814638E04068A5
:101B5000009010F0290F1FD00098000703D5E06B0C
:101B600040F00400E0630098800603D5E06B40F08D
:101B70000200E0630098C00703D0E06B40F0010072
:101B8000E06329202168886084F8397084F838601F
:101B90000120BDE8F88308E0681C11D02DB100F0E9
:101BA0000DFBA0EB0900A8420AD954F83C0F40F005
:101BB000200044F8040984F8018026700320E8E737
:101BC00020684168C906C2D52168122088600120BA
:101BD00084F8390084F838600020DAE738B5044624
:101BE000049894F83850012D10D0012584F838500D
:101BF000022584F8395000902046FFF728FD206820
:101C0000016841F001010160002038BD022038BDAB
:101C100090F83510022903D08021416501207047DA
:101C2000052180F835100068016821F0010101608C
:101C30000020704770B5040025D094F835000228C4
:101C400020D02068016821F0010101602068002592
:101C5000056020684560206885602068C560206850
:101C600005612168212048612046FFF73BFD94F87B
:101C70005C203F2191408160656584F8355084F88F
:101C80003450002070BD012070BD00002DE9F041EE
:101C9000044600F093FA06465CB1002584F83450FF
:101CA000022084F835002068016821F001010160FC
:101CB0000DE00120BDE8F08100F080FA801B0528CE
:101CC00005D920206065032084F83500F2E72068FC
:101CD0000068C007F0D12268116820480140D4E9AB
:101CE00001031843D4E903363343184363691843A7
:101CF000A3691843E3691843236A18430843616AD8
:101D0000042903D1D4E90B13194308431060206858
:101D10004069666A20F0070130460E430127042817
:101D20000CD1A06A0643E06A40B12046FFF7EEFC02
:101D300020B14020606584F83570BAE720684661BC
:101D40002046FFF7CFFC94F85C203F219140816052
:101D5000656584F835700020ACE700003F8010F026
:101D600070B5044600F02AFA0546601C02D004480B
:101D70000078044400F022FA401BA042FAD370BD60
:101D8000C00000202DE9F0412B4886B001680029F1
:101D90004FD14FF00108C0F80080284800240168A6
:101DA00041F0010101600068022500F0010005908A
:101DB0004FF63F00CDE9000502AA03260C2782E872
:101DC000D00069461E4800F00DF902AA694682E873
:101DD000D000CDE900851B4800F004F948F233102B
:101DE000CDE9000502AA694682E8D000164800F055
:101DF000F9F84FF68370CDE9000502AA694682E83A
:101E0000D000124800F0EEF84CF20370CDE9000566
:101E100002AA694682E8D0000D4800F0E3F860208D
:101E2000CDE9000502AA694682E8D000094800F021
:101E3000D9F806B0BDE8F081A8000020383802408B
:101E40000014024000080240001802400010024046
:101E5000000C0240000402402DE9F04FDFF838B1D9
:101E600000224FF001094FF00F0A00BF09FA02F4F7
:101E700001EA0403A3427DD1066857000325BD4053
:101E8000AE430660D60800EB8606D6F820C057079A
:101E90004FEAD7680AFA08F72CEA070CC6F820C000
:101EA0008668AE4386604668A6434660C468AC4315
:101EB000C46022F003055D44D5F808789407260F26
:101EC0000AFA06F4DFF8D4C02740604502D14FF08B
:101ED000000C40E0DFF8C8C0604502D14FF0010CB3
:101EE00039E0DFF8C0C0604502D14FF0020C32E0AB
:101EF000DFF8B4C0604502D14FF0030C2BE0DFF8EF
:101F0000ACC0604502D14FF0040C24E0DFF8A0C063
:101F1000604502D14FF0050C1DE0DFF898C0604528
:101F200002D14FF0060C16E0DFF88CC0604502D1FC
:101F30004FF0070C0FE0DFF884C0604502D14FF08E
:101F4000080C08E0DFF878C0604502D14FF0090CBA
:101F500001E04FF00A0C0CFA06FCBC4516D1D5F88E
:101F60000868A643C5F80868164C25689D43256097
:101F7000241D00E00AE025689D432560241D256896
:101F80009D432560241D25689D432560521C102A11
:101F9000FFF46CAFBDE8F08F00300140000002405C
:101FA0000004024000080240000C02400010024001
:101FB0000014024000180240001C024000200240B1
:101FC00000240240003C014070470000044910B565
:101FD0000A68024202D00860FFF7F6FF10BD000059
:101FE000143C01402DE9F84FDFF890B100224FF08A
:101FF00001084FF0030A4FF00F090BF1040E00BF68
:102000000B6808FA02F42340A3426ED14D68022DFA
:1020100001D0122D0ED1D50800EB850CDCF8205034
:102020005607F70E09FA07F6B5430E69BE402E4370
:10203000CCF82060066855000F790AFA05FC07F015
:10204000030726EA0C06AF40374307604E68012EAF
:1020500005D0022E03D0112E01D0122E0ED187688A
:10206000CE6827EA0C07AE403E4386604668A6432A
:102070000C79C4F30014944034434460C4688E68FF
:1020800024EA0C04AE402643C6604C68E4006FD5D9
:102090003B4C256845F480452560246822F0030503
:1020A00004F480440094374C2E19D6F8084895075C
:1020B0002F0F09FA07F5AC43334DA84201D1002593
:1020C0002EE0324DA84201D1012529E0304DA84231
:1020D00001D1022524E02F4DA84201D103251FE0A4
:1020E0002D4DA84202D104251AE041E02B4DA84213
:1020F00001D1052514E02A4DA84201D106250FE0A3
:10210000284DA84201D107250AE0274DA84201D158
:10211000082505E0254DA84201D1092500E00A2542
:10212000BD402543C6F80858DBF800405D464E68C0
:102130009C43F60300D51C432C60DEF80040754636
:102140004E689C43B60300D51C432C600B4D0835EC
:102150002C684E689C43F60200D51C432C60074D4A
:102160000C352C684E689C43B60200D51C432C608D
:10217000521C102AFFF444AFBDE8F88F003C014028
:102180004438024000300140000002400004024098
:1021900000080240000C02400010024000140240FF
:1021A00000180240001C02400020024000240240AF
:1021B0000AB1816170470904FBE7000001488068AB
:1021C00070470000C000002090F83D20202A01D078
:1021D00002207047242280F83D200268136823F013
:1021E000010313600268536A23F01003536202680C
:1021F000536A0B43536201680A6842F001020A60A5
:10220000202180F83D100020704790F83D20202AC2
:1022100001D002207047242280F83D200268136814
:1022200023F00103136003685A6A22F00F020A4385
:1022300091B2596201680A6842F001020A602021E5
:1022400080F83D100020704710B5040013D0242002
:1022500084F83D002068016821F0010101602046FA
:1022600000F02EFA0020206484F83D0044F8300F7E
:10227000A073207310BD012010BD90F83D00704781
:1022800070B5040004D094F83D00002510B106E0BC
:10229000012070BD84F83C50204600F02FFA242025
:1022A00084F83D002068016821F00101016000F020
:1022B0006BFE33492268B0FBF1F15160314A63682B
:1022C000934206D94FF4967359434FF47A73B1FB96
:1022D000F3F12368491C1962616891420BD84900E7
:1022E000B0FBF1F2C2F30B02042A01D2042019E080
:1022F000B0FBF1F016E0A3689BB301EBC10202EB67
:102300000112B0FBF2F242F48042120530D04BB31E
:1023100001EBC10202EB0111B0FBF1F040F480408F
:1023200040F400402168C861D4E9070108432168EE
:102330000860D4E90310084321688860D4E90501E6
:1023400008432168C8602068016841F0010101600C
:102350002564202084F83D00256384F83E50002049
:1023600070BD00E006E001EB4102B0FBF2F2CCE709
:102370000120D7E701EB4101B0FBF1F0D0E700000D
:1023800040420F00A08601002DE9FF4F83B09A461E
:10239000DDE9118793460446DDF84090FFF70EFF14
:1023A000054694F83D00202874D119230122724972
:1023B0002046009501F07DFE0028F5D194F83C0000
:1023C000012867D0012084F83C0020680168C90713
:1023D00003D1016841F0010101602068016821F426
:1023E00000610160222084F83D00402084F83E0016
:1023F00000262664C4F82490A4F82A805F48E0628E
:10240000608D2085CDE9007553465A4620460499D3
:1024100001F05FFD28B1206C84F83C60042843D0B3
:1024200076E0208DC8B1012820D00228206823D072
:10243000416980690090208D03286BD801282AD03B
:102440004F4902283B464FF0000200955BD088467A
:10245000204601F02EFEE8BB40E02068416981691A
:102460000091016841F40071016076E02068016824
:1024700021F480610160F0E7016821F4806101606E
:102480002068016841F40061016020684169806949
:10249000009062E06EE02A463946204601F07EFE5A
:1024A00030B1206C202833D0012007B0BDE8F08F78
:1024B000206847E02068016841F4007101602068ED
:1024C0000169606A421C62620170208D401E208595
:1024D000608D00E01CE0401E6085E9E7206801682F
:1024E00021F48061016020680169606A421C6262B7
:1024F0000170208D401E2085608D401E60853B460A
:10250000002241460095204601F0D3FD0028D1D09D
:102510000320CAE72A463946204601F03FFE00283C
:10252000BFD120680169606A421C62620170208D1F
:10253000401E2085608D401E608520684169C9432A
:1025400049070AD40169606A421C62620170208DE9
:10255000401E2085608D401E6085208D00287FF400
:102560006AAF202084F83D0084F83E6084F83C6027
:1025700000209AE7022098E7020010000000FFFF09
:10258000040001002DE9FF4F83B09A46DDE9118771
:1025900093460446DDF84090FFF710FE064694F897
:1025A0003D0020287DD11923012243492046009671
:1025B00001F07FFD00287CD194F83C00012878D000
:1025C000012084F83C0020680168C90703D1016834
:1025D00041F0010101602068016821F4006101609F
:1025E000212084F83D00402084F83E000025256429
:1025F000C4F82490A4F82A803048E062608D2085D9
:10260000CDE9007653465A462046049901F0DAFC9B
:1026100080B3206C84F83C50042848D008E032464F
:102620003946204601F0EBFD30B1206C042839D04A
:10263000032007B0BDE8F08F606A411C6162216829
:1026400000780861208D401E80B22085618D491E72
:10265000618521684A69D24352070BD468B1606A28
:10266000421C626200780861208D401E2085608DCA
:10267000401E6085208D0028D1D132463946204643
:1026800001F0F0FC0028D0D154F83D0B016841F472
:1026900000710160202004F81E09E57765770020AD
:1026A000C7E706E02068016841F40071016001207D
:1026B000BFE70220BDE70000020010000000FFFF9E
:1026C00010B50068094988420FD10948016821F412
:1026D0000001016041150748FFF7BEFBBDE810404F
:1026E0004FF480710448FFF7B7BB10BD005C004099
:1026F000403802400008024000000240F0B587B0B8
:10270000044614216846FDF715FE1C4920688842DE
:1027100031D11B480024016841F0040101600168C7
:1027200001F004010591016841F0010101600068B8
:10273000122500F0010005904FF4007001268DE88D
:1027400061000427CDE9034769460E48FFF74AFCBC
:1027500030028DE86100CDE9034769460A48FFF77A
:1027600041FC07481030016841F400010160006835
:1027700000F40000059007B0F0BD0000005C0040D0
:1027800030380240000802400000024002488168E0
:102790000278114481607047C00000200B4810B5DA
:1027A000016841F400710160016841F480610160D9
:1027B000016841F480710160032000F001FA0020FB
:1027C00000F006F800F0B4F9002010BD003C024013
:1027D00010B5014688B00022192000F0D1F9192067
:1027E00000F0C2F913480024016841F001010160C2
:1027F000006805A900F001000690684600F0A4FBFF
:1028000000F0D2FB0C494000B0FBF1F10C480B4A40
:10281000491E026040F2E732C0E90324C0E9011416
:1028200001F0CAF810B1012008B010BD044801F051
:10283000DFF8F9E74438024040420F000000014051
:10284000AC0600202DE9F041044690F8A0001646A1
:102850000F4601281DD0012584F8A050022084F8DD
:10286000A10006EB860000EBC60004EB80003422DA
:102870003830FDF746FD32463946204601F0AAFEC3
:102880002068456284F8A150002084F8A000BDE8CB
:10289000F0810220FBE7000090F8A01001290ED083
:1028A000012100F8A01F02224270064A136843F477
:1028B0008033136041700021017008467047022088
:1028C000704700001868014070B5040004D094F807
:1028D000A100002510B106E0012070BD84F8A050D1
:1028E000204600F06BF8022084F8A100206881697E
:1028F00021F070418161D4E901010843D4E9031258
:102900001143084321688A691043886121688A68F5
:10291000294802408A60A18A0A0421688B68A66956
:10292000334313438B602168CA680240CA60A18B9D
:102930000B042168CA68266A32431A43CA602168B8
:102940000A6902400A61A18C22680B041169A66A17
:1029500031431943116121684A6902404A61A08DDF
:10296000010420684269236B1A430A43426194F8C8
:1029700035002168020294F83600CB6A03F07F43E9
:10298000CB622168CB6A94F8346042EA004033435A
:102990000343CB622068416B41F00601416320682C
:1029A000816941F001018161C4F8A450012084F8DB
:1029B000A100002070BD000000F800F02DE9F041FA
:1029C00086B0044614216846FDF7B4FC50492068DF
:1029D00088427CD14F480024016841F08061016049
:1029E000006800F0806005904A481438016841F0A2
:1029F00020010160016801F020010591016841F0AA
:102A000001010160016801F001010591016841F0D7
:102A100002010160016801F002010591016841F0C5
:102A200040010160016801F040010591016841F039
:102A300004010160016801F004010591016841F0A1
:102A4000080101600068022500F0080005904FF4BD
:102A500080600090CDE901540E26CDE90346694619
:102A60002D48FFF7BFFA41F658000090CDE9015418
:102A7000CDE9034669462948FFF7B4FA03200090E0
:102A8000CDE901540927DFF89880CDE9034769466D
:102A90004046FFF7A7FA4FF470600090CDE901546B
:102AA000CDE9034669464046FFF79CFA4FF40C60B7
:102AB0000090CDE90154DFF86C80CDE9034669460A
:102AC0004046FFF78FFA4FF49860009000E01CE05A
:102AD000CDE90154CDE9034669461348FFF782FA70
:102AE00048200090CDE90154CDE9034669460F48DE
:102AF000FFF778FA4FF4A0500090CDE90154CDE9EA
:102B0000034769464046FFF76DFA06B0BDE8F0811D
:102B100000680140443802400014024000000240B6
:102B2000000402400018024000080240000C02406D
:102B30000C4882B0016841F480410160006800F4F3
:102B4000804000900748001F016841F080510160FB
:102B50000068002200F0805000900F21901E02B00B
:102B600000F00EB84438024000F01F0201219140ED
:102B70004009800000F1E020C0F80011704700001B
:102B8000F0B40E4B1B680C46C3F30223C3F10705D8
:102B9000042D00D90425191D072901D2002300E0C6
:102BA000DB1E012606FA05F1491E214099409E4090
:102BB000761E16403143F0BC02F00AB80CED00E07E
:102BC000064900F0070208684FF6FF03184040EA84
:102BD0000220034A10430860704700000CED00E03B
:102BE0000000FA052DE9F84F04460068DFF804A25A
:102BF000814F824DC1074FF001084FF0000601D10F
:102C000080073CD5CAF86860FFF7D8FA814605E02E
:102C1000FFF7D4FAA0EB0900022878D82868000151
:102C2000F6D42078C107764805D06168227A8901F8
:102C300041EA027101602178890711D50168626853
:102C4000237B9201C1F3027142EA036242EA0171FD
:102C500001603868E16920F01F00491E08433860B0
:102C6000CAF86880FFF7AAFA814605E0FFF7A6FADE
:102C7000A0EB090002284AD828680001F6D5206890
:102C8000410701D400074CD5CAF87060FFF796FAE7
:102C9000814605E0FFF792FAA0EB0900022836D83A
:102CA0002868C0438000F5D520784107554814D5E1
:102CB00001682269237D9201C1F3027142EA036235
:102CC00042EA017101603968226A6FF0FF0321F462
:102CD000F85103EB0222114339602178090710D51E
:102CE00001682269C1F30361920142EA0161227E17
:102CF00041EA027101603868616A20F4403008439B
:102D00003860CAF87080FFF759FA074605E048E0D6
:102D1000FFF754FAC01B022843D82868C04380003C
:102D2000F6D42078800653D534484030016841F00D
:102D3000805101600068344D00F080500090286898
:102D400040F480702860FFF739FA074605E000BFBD
:102D5000FFF734FAC01B022823D82868C005F7D52E
:102D6000274D143D286810F4407020D0218D01F4C7
:102D7000407181421BD02868244920F44070C1F87A
:102D800000800E6028602868C00710D0FFF716FA90
:102D9000064641F2883707E0FFF710FA801BB84279
:102DA00002D90320BDE8F88F28688007F4D5A16A0E
:102DB0001248C1F301220830032A13D0016821F41C
:102DC000F81101602868218DC1F30B0108432860C8
:102DD0002078C00604D50E4994F82C00C1F8E00113
:102DE0000020DFE702680B4B22F4F81219400A4377
:102DF0000260E7E7000047428C380240003802409A
:102E0000843802408838024000700040400E47423B
:102E100000104742FFFCFF0F2DE9F0470E4605006A
:102E200065D0DFF81481D8F80000F7B200F00F0089
:102E3000B04207D288F80070D8F8000000F00F0008
:102E4000B04254D128683D4C810712D5400703D5C4
:102E5000206840F4E05020602878000703D52068FF
:102E600040F4604020602068A96820F0F00008432A
:102E700020602878C0072DD03049686808390128BB
:102E800012D0022813D0032811D00968890700291D
:102E90002DDA216821F0030101432160FFF78EF94B
:102EA000814641F2883A0EE009688903EFE7096834
:102EB0008901ECE7FFF782F9A0EB0901514502D93E
:102EC0000320BDE8F0872068696800F00C00B0EBD3
:102ED000810FEFD1D8F80010404601F00F01B14248
:102EE00007D90770006800F00F00B04201D0012040
:102EF000E7E72878400705D52068E96820F4E05026
:102F0000084320602878000706D52068296920F446
:102F1000604040EAC100206000F056F82168084A8D
:102F2000C1F30311515CC840064908600020FFF757
:102F30004FFC0020C5E70000003C0240083802407A
:102F4000CC990008CC0000200F2202600C4A1368C4
:102F500003F003034360136803F0F0038360136816
:102F600003F4E053C36012684FF4E05303EAD20263
:102F700002610448006800F00F000860704700001C
:102F800008380240003C02400448054900680968CE
:102F9000044AC1F38221515CC8407047CC00002034
:102FA00008380240DC9900080448054900680968AF
:102FB000044AC1F34231515CC8407047CC00002044
:102FC00008380240DC990008154810B5006810F078
:102FD0000C02144813D04110042A0FD0082A0ED135
:102FE0000F4C241F2268236802F03F025B0207D5C2
:102FF0002068C0F38810A0FB010106E0084610BD60
:103000002168C1F38811A1FB00010023FDF748F9F5
:103010002168C1F30141491C4900B0FBF1F010BD2A
:10302000083802400024F4002DE9F84F050076D05E
:103030002878DFF8F8B2BE4CC00749D0DBF80010A2
:103040005846C1F38101012908D00068C0F381000E
:1030500002280AD1201D0068400206D5206880039E
:1030600036D568680028E2D032E06868B0F5803F65
:1030700010D0B0F5A02F206810D020F48030206050
:10308000206820F4802020606868A0B1FFF796F8DF
:1030900006460CE0206840F48030F4E740F48020DD
:1030A0002060F7E7FFF78AF8801B642873D8206850
:1030B0008003F7D50CE0FFF781F8064605E000BF76
:1030C000FFF77CF8801B6428F0D820688003F7D4D1
:1030D0002878DFF8608280074FF000093ED5DBF8E2
:1030E0000010584611F00C0F09D00068C0F38100A1
:1030F00002280BD18D48001F0068400206D42068CA
:10310000800715D5E868012809D111E0E868B8B151
:103110000120C8F80000FFF751F8064605E002E17B
:10312000FFF74CF8801B0228C0D820688007F7D52D
:103130002068296920F0F80040EAC10020600DE015
:10314000C8F80090FFF73AF8064604E0FFF736F8B3
:10315000801B02281FD820688007F7D42878000732
:1031600022D5724E744869696C3671B101210160D3
:10317000FFF724F8074604E0FFF720F8C01B0228F9
:1031800009D830688007F7D50EE0C0F80090FFF747
:1031900015F8074605E083E0FFF710F8C01B02288A
:1031A0007ED830688007F7D42878400768D5DFF8E4
:1031B0007CA100270AF1380ADAF80000C0000BD41D
:1031C000DAF8001041F08051CAF80010DAF8000077
:1031D000012700F080500090584E3068C00510D490
:1031E000306840F480703060FEF7E8FF009005E042
:1031F000FEF7E4FF0099401A022851D83068C00554
:10320000F6D54A4EA868683601280FD005283068E0
:1032100010D020F001003060306820F004003060F1
:10322000A868B8B1FEF7CAFF00900FE0306840F020
:103230000100F4E740F004003060F7E7FEF7BEFF5E
:103240000099411A41F28830814264D83068800781
:10325000F4D50EE0FEF7B2FF009007E0FEF7AEFFF8
:103260000099411A41F28830814254D83068800771
:10327000F4D42FB1DAF8001021F08051CAF8001010
:10328000A869C0B3DBF80010C1F3810102294AD05C
:103290000228484607D0C8F86000FEF78FFF00E01C
:1032A00039E005463AE04746C8F86000FEF786FF79
:1032B000064604E0FEF782FF801B02282BD8206818
:1032C0008001F7D4D5E907010843A96A1C4A4908D7
:1032D00002EB01416A6A41EA8211084395F82C1019
:1032E00040EA01611148001F016001203866FEF7C5
:1032F00065FF054605E014E0FEF760FF401B02286D
:1033000009D820688001F7D50BE000BFFEF756FF13
:10331000401B022802D90320BDE8F88F20688001F5
:10332000F4D40020F8E70120F6E700000838024056
:103330000038024000004742800E474200700040C3
:103340000000FFFF70B50D46040003D094F82C0078
:1033500010B107E0012070BD002084F82D00204648
:1033600000F011F8022084F82C00211D2068FEF7DF
:1033700057FAD4E900022946FEF7A4FA012084F89E
:103380002C00002070BDFEF7FDBC10B5044690F87F
:103390002C00022809D0022084F82C002068FEF7B7
:1033A00067FA012084F82C00002010BD70B5044697
:1033B00090F82C000D4602280DD0022084F82C0035
:1033C0002068FEF75BFA2868022805D05FF001004C
:1033D00084F82C00002070BD0520F9E710B504002A
:1033E00011D0022084F851002068016821F04001CA
:1033F0000160204600F04CF80020606584F8510020
:1034000084F8500010BD012010BD90F851007047A5
:1034100070B5040005D00025A56294F8510010B1E4
:1034200006E0012070BD84F85050204600F046F8B8
:10343000022084F851002068016821F040010160F9
:10344000D4E901010843D4E9031211430843616937
:103450000843218B01F400710843E1690843216AA4
:103460000843A16A084321680860A069042101EAB1
:103470001040616A0843216848602068C16921F4EE
:103480000061C1616565012084F85100002070BDB4
:1034900000680749884209D10648016821F4801173
:1034A00001604FF460710448FEF7D6BC704700001D
:1034B00000500140443802400014024010B586B06C
:1034C000044614216846FCF735FF134920688842FA
:1034D00020D112480021026842F480120260006884
:1034E00000F4801005900D481438026842F0200264
:1034F0000260006800F0200005904FF460700090BA
:103500000220CDE901010520CDE9031069460448F8
:10351000FEF768FD06B010BD00500140443802407F
:10352000001402402DE9F84F0446406800269846F2
:1035300017460D464FF00409B0F5827F01D1A0680F
:1035400090B194F85000012819D04FF0010B84F885
:1035500050B0FEF733FE009094F851004FF0000A8F
:1035600001280ED002267FE084F8519013460A46C7
:103570002046CDF8008000F031F9BDE8F88F022038
:10358000FBE7002D6FD0002F6DD084F85190C4F868
:1035900054A0A563A787E787C4F830A0A4F834A097
:1035A000A4F836A0C4F840A0C4F844A0A0684FF422
:1035B0000047B84204D12068016821F480410160CD
:1035C00020680168490603D4016841F040010160A8
:1035D000E068B8B133E020688168C90706D0007B95
:1035E00005F8010BE08F401EE0870BE0B8F1000FFB
:1035F00023D0B8F1FF3F05D0FEF7E0FD0099411A56
:1036000041451AD2E08F0028E5D11BE0206881688F
:10361000C90706D0C06825F8020BE08F401EE0877E
:103620000DE0B8F1000F08D0B8F1FF3F07D0FEF76A
:10363000C5FD0099411A414501D3032614E0E08FEE
:103640000028E3D16068B0F5827F0AD1A068B84253
:1036500002D0B0F5806F04D12068016821F04001EC
:103660000160606D00B1012684F851B084F850A06B
:10367000304682E72DE9F84F044690F850000026C6
:10368000994617460D4601280DD04FF0010B84F8DE
:1036900050B0FEF793FD804694F85100B2460128E1
:1036A00004D0022694E00220BDE8F88F002D7BD0E4
:1036B000002F79D0032084F85100C4F854A025636A
:1036C000A786E786C4F838A0A4F83CA0A4F83EA0DA
:1036D000C4F844A0C4F840A0A068B0F5004F04D1DD
:1036E0002068016841F48041016020680168490652
:1036F00003D4016841F040010160E068B0F5006F5B
:10370000606804D030B3E08E012823D03EE010B1D1
:10371000E08E01281AD135F8021B206805E02068E8
:103720008168890706D535F8021BC160E08E401E0E
:10373000E0860BE0B9F1000F34D0B9F1FF3F05D0BE
:10374000FEF73CFDA0EB080149452BD2E08E002896
:10375000E5D11EE0216815F8010B087306E020682A
:103760008168890706D515F8011B0173E08E401E9C
:10377000E0860BE0B9F1000F14D0B9F1FF3F05D09E
:10378000FEF71CFDA0EB080149450BD2E08E002896
:10379000E5D14B46012202212046CDF8008001F000
:1037A00037FA10B1032613E011E04246494620469D
:1037B00001F01EFA18B101262020606508E0A0681B
:1037C00018B92068C16880680090606D00B101265A
:1037D00084F851B084F850A0304665E72DE9F84FE1
:1037E000044690F8500000260A9F9A4693460D46DC
:1037F0004FF0010801280ED0012084F85000FEF798
:10380000DDFC814694F85100616801280CD0B1F5C7
:10381000827F07D102E00220BDE8F88FA16809B9D4
:10382000042801D00226BDE055B1BBF1000F07D03E
:10383000BAF1000F04D094F85100012802D004E03E
:103840000126AFE0052084F8510000206065C4F82F
:1038500038B0A4F83EA0A4F83CA02563A4F836A094
:10386000A4F834A02064606420680168490603D489
:10387000016841F040010160E068B0F5006F6068E8
:1038800004D0E8B3E08E01283BD06AE010B1E08EAE
:1038900001282ED1216835F8020BC860E08E401E49
:1038A000E08626E0B8F1000F0DD0E08E58B1206818
:1038B0008168890707D535F8021BC160E08E401E7C
:1038C000E0864FF00008E08F58B120688168C90792
:1038D00007D0C0682BF8020BE08F401EE0874FF046
:1038E0000108781C05D0FEF769FCA0EB0900B8427E
:1038F00046D2E08E0028D5D1E08F0028D2D136E024
:10390000FFE7216815F8010B0873E08E401EE08682
:1039100027E000BFB8F1000F0DD0E08E58B120684D
:103920008168890707D515F8011B0173E08E401ED9
:10393000E0864FF00008E08F58B120688168C90721
:1039400007D0C0680BF8010BE08F401EE0874FF0F6
:103950000108781C05D0FEF731FCA0EB0900B84245
:103960000ED2E08E0028D5D1E08F0028D2D13B4680
:10397000012202212046CDF8009001F049F908B15A
:1039800003260FE04A463946204601F031F918B1C6
:1039900001262020606505E0A06818B92068C1688C
:1039A00080680090012084F85100002084F85000C5
:1039B000304631E77047704710B5040003D094F8E3
:1039C000390010B107E0012010BD002084F8380054
:1039D000204600F00CF8022084F83900211D2068F0
:1039E00001F00AFB012084F83900002010BD704767
:1039F0000168CA6842F00102CA600068016841F0CB
:103A00000101016000207047704770B504460068EE
:103A100001694FF00005C943890715D4C168C9433E
:103A2000890711D4E91E0161012020762068806990
:103A30008007204602D0FFF7E7FF04E000F098F887
:103A4000204600F096F8257620680169C9434907A9
:103A500017D4C168C943490713D46FF00401016149
:103A6000022020762068806910F4407F204602D032
:103A7000FFF7CAFF04E000F07BF8204600F079F879
:103A8000257620680169C943090716D4C168C9436E
:103A9000090712D46FF00801016104202076206824
:103AA000C0698007204602D0FFF7AEFF04E000F0B7
:103AB0005FF8204600F05DF8257620680169C9436B
:103AC000C90617D4C168C943C90613D46FF01001E1
:103AD0000161082020762068C06910F4407F2046EC
:103AE00002D0FFF791FF04E000F042F8204600F01A
:103AF00040F8257620680169C943C90708D1C16823
:103B0000C943C90704D1891E0161204600F032F87B
:103B100020680169C943090609D4C168C943090677
:103B200005D46FF0800101612046FFF743FF206854
:103B30000169C943490609D4C168C943490605D486
:103B40006FF040010161204600F01EF82068016915
:103B5000C94389060BD4C168C943890607D46FF0ED
:103B6000200101612046BDE87040FFF724BF70BD11
:103B70007047704700680349884201D1FEF706BECE
:103B800070470000000001407047704770B5026840
:103B900004461068D168536910F00F0F50D003F03D
:103BA000010501F4907635435DD0C20705D0CA0502
:103BB00003D5E26B42F00102E263420705D5DA0762
:103BC00003D0E26B42F00202E263820705D5DA0716
:103BD00003D0E26B42F00402E263020705D5DA0784
:103BE00003D0E26B42F00802E263E26B002A33D0BA
:103BF000800604D5880602D5204601F073FA2068B5
:103C00004069E16BC0F38010090700D428B3204657
:103C100001F05AFA2068416949061AD5416921F034
:103C200040014161606BA0B11B490165606BFDF70C
:103C3000EFFF002810D0606B016DBDE870400847B1
:103C4000830610D58B060ED52046BDE8704001F0E6
:103C500049BA2046FFF799FF70BD2046FFF795FF50
:103C60000020E06370BD030606D50B0604D5204690
:103C7000BDE8704001F0D2BB4006F3D54806F1D54F
:103C8000D168204621F04001D160202184F839100C
:103C900000F009F970BD0000B950000870B50400CB
:103CA00004D094F83900002510B106E0012070BD61
:103CB00084F83850204600F023F8242084F8390096
:103CC0002068C16821F40051C160204601F050FA1B
:103CD0002068016921F4904101612068416921F067
:103CE0002A0141612068C16841F40051C160E56367
:103CF000202084F8390084F83A00002070BD0000CC
:103D000010B586B0044614216846FCF713FB184929
:103D10002068884229D11748016841F010010160EC
:103D2000006800F01000059012481438016841F056
:103D3000010101600068694600F0010005904FF440
:103D4000C0600090022001900120029003200390A7
:103D5000072004900848FEF745F900220521252098
:103D6000FEF70EFF2520FEF7FFFE06B010BD000097
:103D700000100140443802400000024090F83A3000
:103D8000202B1DD1D1B1CAB190F83830012B17D0FA
:103D900081628285C2850021C163222280F83A2097
:103DA00080F8381001684A6942F001024A610068EF
:103DB000C16841F49071C1600020704701207047D4
:103DC00002207047074B10B51A1F111FA1F13400D4
:103DD00002F0FBF903490B22BDE810403C390248D0
:103DE000FFF7CCBFDC0400206C0600202DE9F8436F
:103DF000044690F839001F4616460D46202850D13B
:103E0000A5B19EB194F8380001284AD0012084F869
:103E100038004FF00008C4F83C80212084F83900B5
:103E2000FEF7CCF9A6848146E68426E00120BDE8B1
:103E3000F883E08C401EE084A0684B46B0F5805FBC
:103E40004FF000024FF080012046009703D001F0B0
:103E500016FBE8B90DE001F012FBC8B9288821680B
:103E6000C0F308004860206908B16D1C05E0AD1C76
:103E700003E0216815F8010B4860E08C0028D8D1D8
:103E80004B46002240212046009701F0F8FA08B185
:103E90000320CCE7202084F8390084F83880002003
:103EA000C5E70220C3E77047FEE701684A69D243CD
:103EB00052050CD46FF480624A6104210164002130
:103EC00040F8301F20224273017301207047002008
:103ED00070472DE9F84F0446006889460B9D01683C
:103EE0009846174641F4806101602068016841F4FA
:103EF0008071016000954FF0011A00225146204662
:103F00000A9B00F0D6F8F0BB216809F0FE000861BA
:103F10000AF1010B2B46594620460A9A00F0FAF89E
:103F200018B1206C042812D03AE0206841698069F9
:103F300000902A4620460A9900F061F950B1206CA1
:103F400004282DD12068016841F40071016001202E
:103F5000BDE8F88FFEB2B8F1010F09D02168380A28
:103F600008612A4620460A9900F049F90028E6D15E
:103F7000206806612A4620460A9900F040F9002888
:103F8000DDD1206800E00BE0016841F48071016040
:103F900000950022514620460A9B00F08AF808B19D
:103FA0000320D5E7216809F0FF0040F00100086117
:103FB0002B46594620460A9A00F0ACF80028B0D1AA
:103FC000C6E700002DE9F843044600680D46DDE928
:103FD000089701689846164641F4807101604B4687
:103FE00000224FF001112046009700F062F8E8B976
:103FF000216805F0FE0008613B464A461849204604
:1040000000F088F828B1206C04280FD10120BDE809
:10401000F88320684169806900903A464946204605
:1040200000F0EDF820B1206C042813D00320EEE757
:10403000F5B2B8F1010F09D02168300A08613A469B
:104040004946204600F0DBF80028ECD120680561E5
:104050000020DCE72068016841F400710160D5E7C9
:104060000200010070B516460D4604461AE02046CF
:10407000FFF71BFF08B1012070BD681C12D025B1ED
:10408000FEF79CF8801BA8420CD954F8400F40F072
:10409000200044F810090020206020216173207363
:1040A000032070BD20684069C0434007DFD4002072
:1040B00070BD2DE9F0471E4690460D460446C1F3FB
:1040C0000747DDF8209012E0701C10D02EB1FEF7EB
:1040D00075F8A0EB0900B04209D9002044F8300F70
:1040E00020216173A07320730320BDE8F08720684E
:1040F000012F0AD0806925EA00000004000C06D0D8
:1041000000214145E0D00020EFE74069F3E70121BD
:10411000F7E700002DE9F0479A4691460D46044620
:1041200000264FF02008C1F307472AE020684069C5
:10413000C043400512D42068016841F40071016059
:1041400021686FF48060486104202064266384F84D
:104150003D8084F83C600120BDE8F087B9F1FF3F65
:104160000FD0B9F1000F05D0FEF728F8A0EB0A0137
:10417000494506D944F8306F84F80D802673032032
:10418000EAE72068012F07D0D0F8180025EA0000E0
:104190000004000CE0D0C9E74069F7E72DE9F041E1
:1041A000002590460E460446202721E04069C04382
:1041B000C0060CD421686FF01000486125642563A7
:1041C00084F83D7084F83C500120BDE8F0812EB1A8
:1041D000FDF7F4FFA0EB0800B04209D954F8400FF6
:1041E00040F0200044F80409677025700320ECE7D4
:1041F00020684169C9434906D8D40020E5E770B575
:1042000016460D4604461AE02046FFF74EFE08B15A
:10421000012070BD681C12D025B1FDF7CFFF801BB7
:10422000A8420CD954F8400F40F0200044F810097F
:1042300000202060202161732073032070BD20685E
:104240004069C0430006DFD4002070BD10B50348AC
:10425000FDF7FAFFBDE8104000F002B83001002081
:1042600010B50E48FEF709F8002815D10B480C4987
:104270004FF4804201600B49416000218160C0E938
:10428000031241618161C161016200F00DF8BDE876
:1042900010400248FDF7F4BF10BD000030010020BF
:1042A000005C0040A086010000B50068284987B086
:1042B00088424AD127480021026842F00402026085
:1042C000026802F004020592026842F001020260F4
:1042D000006800F0010005904FF4807000901220FB
:1042E000CDE90101022003900420049069461A4898
:1042F000FDF778FE4FF40070009069461748FDF70F
:1043000071FE14481030016841F40001016000683A
:1043100000F4000005900F481038016841F40001D6
:104320000160016821F40001016000220F21482092
:10433000FEF726FC4820FEF717FC00220F2149203B
:10434000FEF71EFC4920FEF70FFC07B000BD000081
:10435000005C00403038024000000240000802408B
:10436000FDF7FEBC104800B5026887B0002142F09E
:1043700001020260006800F0010005904FF4004067
:1043800000900120CDE902010848019069460848E3
:10439000FDF728FE00220F212820FEF7F1FB282040
:1043A000FEF7E2FB07B000BD3038024000002110EC
:1043B00000000240FFF754BF1FB50A460146002027
:1043C000084C8DF80C000123A46803A88DE819009F
:1043D0000548FDF7D9FF08B1FFF738FF9DF80C003D
:1043E00004B010BD00000020300100203EB514468E
:1043F0000A460146074880680094CDE90130012350
:104400000548FDF7C1FF002802D0FFF71FFF01207C
:104410003EBD000000000020300100201FB5134603
:10442000084C0A468DF80C300146A468012303A805
:104430008DE819000448FEF7A5F8002801D0FFF721
:1044400005FF1FBD0000002030010020FDF788BCE3
:104450002DE9F041244886B00178002940D1234C51
:10446000012505702068002640F0080020602068C3
:10447000022700F00800059068038DE8E100DFF8EE
:10448000708069464046FDF7ADFD206840F00800A9
:1044900020602068694600F008000590A0148DE8AF
:1044A000E1004046FDF79EFD206840F004002060DA
:1044B0002068104C00F00400059004208DE8E10015
:1044C00069462046FDF78EFD002204212046FDF7B7
:1044D0006FFE012204212046FDF76AFE00F0EEFB8C
:1044E00006B0BDE8F0810000000000203038024036
:1044F000000C0240000802402DE9F843154D0C461F
:104500000746002204212846FDF752FEDFF84880C6
:104510004FF40056002231464046FDF749FE38462A
:1045200000F01AFC0D4822466946C3680C48FEF7A5
:10453000F9FF08B100F0B8FB012231464046009C6B
:10454000FDF736FE012204212846FDF731FE204604
:10455000BDE8F88300080240000C02400000002083
:104560008401002070B50546012251030948FDF77A
:104570001FFE094C002204212046FDF719FE2846A3
:1045800000F0EAFB2046BDE8704001220421FDF75F
:104590000FBE0000000C02400008024070B5054646
:1045A00000224FF400510948FDF702FE084C00229A
:1045B00004212046FDF7FCFD284600F0CDFB2046F7
:1045C000BDE8704001220421FDF7F2BD000C02405D
:1045D00000080240F0B503688C88DD68C5F30B4520
:1045E0002C442504882404EBC2141E5906F470469A
:1045F0001E5103680F68DE68C6F30B46761C3E4406
:104600002E431E5104688B89E568C5F30A052B44C7
:104610001D048C2303EBC213E65806F47046E650E3
:1046200004688F68E668C6F30A06761C3E442E438B
:10463000E6509423046803EBC213E55825F0070500
:10464000E55005680C69EC5091F831300C7E1F0282
:1046500026069C24056804EBC21491F8323055F804
:1046600004C04FF0000C45F804C091F8305046EA01
:1046700003433D431D4303681D519823046803EB26
:10468000C213E55825F0FF05E55005684C69EC506C
:10469000A023046803EBC213E55840F20776B54344
:1046A000E550D1E907452C430568EC50AC2304687C
:1046B00003EBC213E55844F803C005684C6AEC509C
:1046C0000B698BB3012B32D0042B32D0022B30D0AC
:1046D000032B2ED0072B2CD00123B024056804EB2C
:1046E000C2142E5906F0E0262E51D1E90065AD1B0B
:1046F0000E8D5D435E43ED1C45EA064305682B5174
:10470000B423046803EBC213E5586FF30A05E550C0
:104710000468C96AE1500068842101EBC211425863
:1047200042F001024250F0BDFFE70423D5E7032326
:10473000D3E70223D1E700000F4810B50D4901600F
:1047400000210222C0E90112C160C0E90A1201631E
:104750004163FDF77BF908B1FDF761F801210648D7
:10476000FDF720F9002803D0BDE81040FDF757B849
:1047700010BD000000B002402C04002000B513481A
:1047800087B01149016001210022C0E90112042112
:10479000C16010214023C0E904138023C0E9063220
:1047A000026242628262009101910291039104913E
:1047B000059106916946FEF7C5FD002801D0FDF779
:1047C0002EF807B000BD0000400100A06C040020DE
:1047D00030B51B489FED190A8DB080ED0D0A80EDB4
:1047E0000E0A002580F83C5001460B221548FFF7C1
:1047F000C5FA01210AA80A9501F0BDFC124C01215D
:10480000A0600BA80B9501F0B6FCE06014220F49E4
:104810006846FBF776FD0021684601F0BFFC0B49B6
:1048200020601422143105A8FBF76BFD002105A8B8
:1048300001F0B4FC60600DB030BD0000000000006D
:10484000A00400206C060020B00000209C99000805
:104850002DE9F04F87B014216846FBF76BFD6748E0
:104860000024016841F004010160016801F00401C5
:104870000591016841F020010160016801F020010B
:104880000591016841F080010160016801F080013B
:104890000591016841F001010160016801F0010129
:1048A0000591016841F002010160016801F0020117
:1048B0000591016841F040010160016801F040018B
:1048C0000591016841F010010160016801F01001DB
:1048D0000591016841F0080101600068DFF820914E
:1048E00000F008000590002216214846FDF760FC04
:1048F000DFF810A1002280215046FDF759FCDFF8B7
:1049000008B14FF44057002239465846FDF750FC95
:104910004FF4C048002241463C48FDF749FC1620B0
:1049200000900125CDE90154694648460394FDF7FE
:1049300059FB37480095CDE9010469465046FDF71B
:1049400051FB344E48F20600CDE900066946029458
:104950005046FDF747FB80200090CDE901546946A1
:1049600050460394FDF73EFB2020CDE90006694642
:1049700002944846FDF736FB0420CDE90004264E9C
:10498000694630460294FDF72DFB4FF450400090ED
:104990000220CDE901040C20CDE9034069463046F0
:1049A000FDF720FB6803CDE9000469463046029418
:1049B000FDF718FBE802CDE9000469465846029469
:1049C000FDF710FB0097CDE9015469465846039462
:1049D000FDF708FBCDF80080CDE9015469460B488E
:1049E0000394FDF7FFFA002205210620FEF7C8F820
:1049F0000620FEF7B9F807B0BDE8F08F3038024066
:104A00000008024000000240000C02400018024072
:104A1000000011100000121000040240144810B5EC
:104A2000124901601349416000214FF480428160C6
:104A3000C0E9031241618161C1610162FDF720FC9F
:104A400008B1FCF7ECFE00210948FDF7BDFB08B1F9
:104A5000FCF7E5FE00210648FDF7D7FB002803D050
:104A6000BDE81040FCF7DBBE10BD0000005C00405C
:104A700018050020A086010070B59AB03421684660
:104A8000FBF758FC34210DA8FBF754FC2F482E49A6
:104A90000024C0E9001484600721C460C0E9044117
:104AA000032181610E210525C0E907154FF4A77187
:104AB0004162F52181624FF4AA71C162F72101635D
:104AC00080F8344080F8354080F83640FDF7FCFE31
:104AD00008B1FCF7A4FE019402944FF48066CDE97E
:104AE0000646039404940094CDE908548DF83040B0
:104AF00005948DF831400A940B948DF832400022D1
:104B000069461248FDF79EFE08B1FCF788FE0D9439
:104B10000E940F94109411941294CDE91346CDE99C
:104B200015548DF864408DF86540179418948DF8ED
:104B3000664001220DA90548FDF784FE002801D03A
:104B4000FCF76DFE1AB070BD006801406C050020D6
:104B50000F4810B50D4901604FF48271416000218A
:104B60008160C1604FF400720161C0E90512C1614A
:104B70000162416281620A21C162FEF749FC00289C
:104B800003D0BDE81040FCF74ABE10BD0050014004
:104B9000140600200C4810B50A4901604FF4164174
:104BA0004160002181600C22C160C0E90412816172
:104BB000C161FFF773F8002803D0BDE81040FCF78F
:104BC0002EBE10BD001001406C060020FEE77047AD
:104BD0000907090E002806DA00F00F0000F1E020B6
:104BE00080F8141D704700F1E02080F80014704731
:104BF00038B50B46009204460022802100F008F8E8
:104C0000002804D0606D40F020006065032038BDAE
:104C10002DE9F0411D4617460E460446DDF8188082
:104C200035E0681C33D02DB1FDF7C8FAA0EB0800C1
:104C3000A8422CD32068416821F0E00141606068FF
:104C4000B0F5827F0BD1A068B0F5004F02D0B0F56F
:104C5000806F04D12068016821F040010160A06AE2
:104C6000B0F5005F0AD1206801684DF6FF7211406F
:104C700001602068016841F400510160012084F85E
:104C80005100002084F850000320BDE8F081206826
:104C9000806836EA000004D00020B842C1D100206C
:104CA000F3E70120F9E7000010B50348FEF796FB93
:104CB000BDE8104000F002B88401002000B587B0C4
:104CC0002148FEF7A2FB00283BD11F481F49016085
:104CD0001821C16100218160416107220161C0E9A1
:104CE0000A12C1604FF400720162826141624FF4A6
:104CF000827141601648016841F4801101600068CA
:104D000000F48010059012481438016841F0200129
:104D100001600068694600F0200005904FF4607063
:104D20000090022001900290012003900520049041
:104D30000848FDF757F907B003485DF804EBFEF7A4
:104D400067BB07B000BD0000840100200050014097
:104D5000443802400014024001B506480122694669
:104D6000C3680548FEF786FC002801D0FFF79CFFCA
:104D700008BD00000000002084010020194C08B587
:104D8000612604F13E054FF47A7866272846FCF741
:104D9000E9FBE08F0028F9D0B4F8400047386328D9
:104DA000F4D2B4F84200A0F1EC01272909D28DF821
:104DB00000604346012269460B48FFF717F80BA134
:104DC0000BE09C384F28E1D28DF800704346012259
:104DD00069460548FFF70AF808A10120FCF7A0F88A
:104DE000D4E70000A00400206C060020546F756317
:104DF0006820426F74616F2031000000546F75634A
:104E00006820426F74616F2032000000204C04F172
:104E1000460800BFD4E90D6594F83C701D48FCF7C6
:104E200055FA732F02D06E2F02D005E01AA100E0D0
:104E30001CA10220FCF774F83046FBF786FA41EC1F
:104E4000100B1CA153EC102B404600F053FB4146C5
:104E50000420FCF765F82846FBF777FA41EC100BC5
:104E600017A153EC102B404600F044FB41460520AF
:104E7000FCF756F81E236422A0214620FCF79EF87A
:104E80001E236422F0214620FCF798F8C2E70000B8
:104E9000A004002028000020436F6E6563746164E5
:104EA0006F0000004E616F20636F6E656374616414
:104EB0006F00000054656D702025322E316643006E
:104EC000556D69642025322E3166252500000000CD
:104ED00010B5502080F31188BFF34F8FBFF36F8F51
:104EE00002F0C4F818B104494FF080500860002067
:104EF00080F3118810BD000004ED00E030B59FB0D4
:104F000030216846FBF716FA142118A8FBF712FAAD
:104F100030210CA8FBF70EFA1D480025016841F06E
:104F200080510160006800F080501D9019480168B0
:104F300041F4404101600068022400F440401D90AB
:104F400001200090000401908001CDE9064004207A
:104F50000890A820CDE9090407200B906846FEF7C9
:104F600063F818A90F2081E831004FF4A0501B907E
:104F70001C90052118A8FDF74FFF08200C90D820A1
:104F80001595109012940CA8FDF72CFE1FB030BDA3
:104F900040380240007000401048016841F4700140
:104FA00001600F48016841F0010101600C4A0021D5
:104FB0000832116002680B4B1A400260031D0A4A56
:104FC0001A60026822F48022026005480C300160F9
:104FD00002495806803908607047000088ED00E0FB
:104FE00000380240FFFFF6FE103000240148FEF7B3
:104FF0000CBD0000AC060020F0B50268234B244D28
:10500000244E254F254C4FF0804C984209D06045E6
:1050100007D0A84205D0B04203D0B84201D0A04288
:1050200004D122F0700E4A6842EA0E0298421BD068
:10503000604519D0A84217D0B04215D0B84213D05D
:10504000A04211D0164DA8420ED0164DA8420BD04A
:10505000154DA84208D0154DA84205D0144DA842C0
:1050600002D0144DA84203D122F44075CA682A43E5
:1050700002608A68C2620A688262984201D0A042D5
:1050800001D10969016301214161F0BD00000140C6
:105090000004004000080040000C004000040140F3
:1050A0000040014000440140004801400018004019
:1050B000001C00400020004010B5806B0021C1851D
:1050C000C184FEF762FD10BD0168CA6822F49072C7
:1050D000CA6001684A6922F001024A61202180F811
:1050E0003A10704710B590F83A10222901D00220EA
:1050F00010BD8168B1F5805F11D001690029016898
:105100001FD0496801F07F03816A4A1C82620B70DC
:10511000C18D491E0904090CC18518D026E0026919
:10512000816A002A0268526805D0D2B20A80816A78
:10513000491C8162ECE7C2F308020A80816A891C7B
:10514000F7E74A68816A4B1C83620A70E0E70168EE
:10515000CA6822F49072CA6001684A6922F00102AA
:105160004A61202180F83A10FEF72CFE002010BD85
:105170002DE9F04104460068016921F44052E168DC
:10518000114301612168C86849F20C6290432369A8
:10519000A268E5691A4363692B431A430243CA6054
:1051A0002168486920F44072A06910434861E169B0
:1051B0006425B1F5004F9748974A21684FF03208AF
:1051C0003FD0914201D081427CD1FDF7EDFE00EB52
:1051D000C00101EB001061688900B0FBF1F6FDF73A
:1051E000E3FE00EBC00101EB001061688900B0FB39
:1051F000F1F0B0FBF5F06FF01801484306EB8001C9
:1052000008EB0110B0FBF5F000F0F006FDF7CCFE66
:1052100000EBC00101EB001061688900B0FBF1F008
:10522000B0FBF5F006EB0016FDF7BEFE00EBC0018B
:1052300001EB001061688900B0FBF1F7FDF7B4FEE7
:10524000D2E0914201D081423DD1FDF7ADFE00EBAD
:10525000C00101EB001061684900B0FBF1F0B0FB48
:10526000F5F00601FDF7A0FE00EBC00101EB001018
:1052700061684900B0FBF1F7FDF796FE00EBC00155
:1052800001EB001061684900B0FBF1F0B0FBF5F0F4
:105290006FF01801484307EB800108EBC100B0FB39
:1052A000F5F000F0F80006EB4006FDF77DFE00EBA0
:1052B000C00101EB001061684900B0FBF1F7FDF798
:1052C00073FE3CE055E0FDF75FFE00EBC00101EB33
:1052D000001061684900B0FBF1F0B0FBF5F0060189
:1052E000FDF752FE00EBC00101EB001061684900C0
:1052F000B0FBF1F7FDF748FE00EBC00101EB001039
:1053000061684900B0FBF1F0B0FBF5F06FF01801F7
:10531000484307EB800108EBC100B0FBF5F000F05B
:10532000F80006EB4006FDF72FFE00EBC00101EB95
:10533000001061684900B0FBF1F7FDF725FE00EBB6
:10534000C00101EB001061684900B0FBF1F0B0FB57
:10535000F5F06FF01801484307EB800108EBC1003E
:10536000B0FBF5F000F00700216830448860BDE82C
:10537000F081FDF709FE00EBC00101EB0010616850
:105380008900B0FBF1F6FDF7FFFD00EBC00101EB7A
:10539000001061688900B0FBF1F0B0FBF5F06FF030
:1053A0001801484306EB800108EB0110B0FBF5F053
:1053B00000F0F006FDF7E8FD00EBC00101EB001086
:1053C00061688900B0FBF1F0B0FBF5F006EB001668
:1053D000FDF7DAFD00EBC00101EB00106168890008
:1053E000B0FBF1F7FDF7D0FD00EBC00101EB0010C1
:1053F00061688900B0FBF1F0B0FBF5F06FF01801C7
:10540000484307EB800108EB0110B0FBF5F000F01A
:105410000F00A9E7001401400010014090F8391076
:10542000212901D0022070478168B1F5805F016AAF
:105430000BD04A1C0262026809785160C18C491E77
:105440000904090CC1840ED017E009880268C1F371
:105450000801516001690029016A02D0491C0162FA
:10546000ECE7891CFBE70168CA6822F08002CA6089
:105470000068C16841F04001C160002070472DE91B
:10548000F041984617460E460446069D1DE0681CEE
:105490001BD02DB1FCF792FEA0EB0800A84214D956
:1054A0002068C16821F4D071C1602068416921F091
:1054B00001014161202084F8390084F83A0000207D
:1054C00084F838000320BDE8F0812068006836EADF
:1054D000000004D00020B842D9D00020F3E701201A
:1054E000F9E700000148FEF751BB00006C06002000
:1054F000FEE700000FB4084B10B504A902AA0398F8
:1055000000F0FCF8044602A9002000F08EFC2046C2
:1055100010BC5DF814FB00002B5E000800000000CA
:1055200000B583B09FED060B0A4601468DED000BDA
:105530006846FAF78AFF9DED000B03B000BD00003E
:10554000000000000000000002E008C8121F08C1AF
:10555000002AFAD170477047002001E001C1121FF4
:10556000002AFBD1704700002DE9FF5F82B00021C7
:10557000DDE90430020DDDF840B0034318D044F6F5
:105580001050A2F2FF3242431514119801281FD087
:10559000A5EB0B00401C5FEA000A4FF000064E4FDF
:1055A000DFF83891B046504615D5CAF1000413E033
:1055B000119801244AA3012801D16FEA0B01029836
:1055C000119AC0E90031C0E9024206B0BDE8F09F7F
:1055D000CBF10000DFE704460021404A491842EBC6
:1055E0000450CDE9001012E0E00707D032463B46F8
:1055F00040464946FBF73AF88046894632463B46E4
:1056000010461946FBF732F806460F466410002C88
:10561000EAD1DDE90401DDE90023BAF1000F06DA81
:10562000FBF724F842464B46FBF720F805E0FBF772
:105630008FF842464B46FBF78BF804460E46002295
:10564000284BFBF70DF903D84FF0FF30014607E078
:105650000022254B20463146FAF761FFFBF7E7F8B9
:10566000102409E0002C0ADB0A220023FAF718FEB6
:10567000039B30321A55641E50EA0102F2D1641CB9
:10568000039AC4F111031444119A012A03D0012290
:1056900008430DD10AE0084304D000204FF0110B5D
:1056A000119072E7A3EB0B056D1E0DE05B4504DD69
:1056B0004FF0000205F1010504E003DA4FF00002AB
:1056C000A5F10105002AECD002981199C0E9023138
:1056D000C0E9004579E70000000014400000F03FF9
:1056E000300000000000F0430000E03F30380A289E
:1056F00001D2012070470020704700002DE9FF4FC4
:1057000095B09B468946064600250FE2252877D1AD
:1057100000242746F84A0121059400E0044316F8C6
:10572000013F203B01FA03F01042F7D130782A28DC
:1057300011D06FF02F033078A0F13002092A16D86B
:10574000059A44F0020402EB820203EB4202104489
:10575000761C0590EFE759F8042B0592002A03DA2E
:10576000504244F40054059044F00204761C307812
:105770002E2816D116F8010F44F004042A280DD063
:105780006FF02F023078A0F13003092B09D807EB16
:10579000870302EB4303C718761CF3E759F8047B31
:1057A000761C30786C280FD006DC4C2817D068287F
:1057B0000DD06A2814D104E0742810D07A280FD1B3
:1057C0000DE044F400140AE044F4801401E044F4D1
:1057D00040147278824202D104F58014761C761C43
:1057E000307866280BD013DC582877D009DC0028E5
:1057F00075D04528F6D04628F4D047281AD19DE127
:1058000018E0632835D0642879D0652812D195E155
:10581000702873D008DC6728F1D069286FD06E2813
:105820000DD06F2806D1B5E073282CD0752875D01F
:10583000782874D05A46179990476D1C75E1C4F3C7
:105840000250022809D003280DD0D9F800100428EE
:105850000DD00D6009F1040967E1D9F80010EA17CD
:10586000C1E90052F6E7D9F800100D80F2E70D709B
:10587000F0E719F8041B8DF8001000208DF80100E6
:10588000EA46012003E059F804AB4FF0FF3061070E
:105890004FF0000102D40DE008F101018846B94241
:1058A0000FDA8045F8DB1AF808100029F4D108E077
:1058B00008F1010188468142FADB1AF80810002934
:1058C000F6D105985B46A0EB080721463846179AA3
:1058D00000F094FA284400EB080507E04DE029E1C8
:1058E0000DE01AF8010B5A4617999047B8F10108D4
:1058F000F7D25B4621463846179A13E142E00A2266
:105900000092C4F302524FF0000A022A08D059F85C
:1059100004CB032A4FEAEC710AD00DE029E02AE01B
:1059200009F1070121F00702F2E802C1914609E0FE
:105930000FFA8CFC4FEAEC71042A03D14FFA8CFC6D
:105940004FEAEC71002907DA0A460021DCF1000C6D
:1059500061EB02012D2202E0220504D52B228DF8F5
:105960000420012203E0E20701D02022F7E790465D
:1059700059E00A2102E010220DE010214FF0000A48
:1059800000910BE010224FF0000A44F004040827B5
:10599000009203E008224FF0000A0092C4F3025282
:1059A000022A05D059F804CB0021032A08D009E0C7
:1059B00009F1070121F00702F2E802C1914605E072
:1059C0001FFA8CFC042A01D10CF0FF0C4FF00008E8
:1059D000220728D5702806D0009B83F0100353EAD5
:1059E0000A0305D00EE040228DF80420012208E0D1
:1059F0005CEA010206D030228DF804208DF8050003
:105A000002229046009B83F0080353EA0A030AD15E
:105A10005CEA010201D1620705D530228DF804202D
:105A20004FF001087F1E582804D034A003900EA820
:105A300002900DE036A0F9E753466046009AFAF767
:105A40002FFC84460398825C0298401E02900270EC
:105A50005CEA0100F0D1029806A9081A00F1200AB8
:105A6000600702D524F4803400E00127574502DDA9
:105A7000A7EB0A0000E0002000EB0A010090059867
:105A80004144401A0590E00306D45B462146179A2C
:105A9000059800F0B3F90544002706E001A85A462E
:105AA000C05D179990476D1C7F1C4745F6DBE003EE
:105AB0000CD55B462146179A059800F09FF90544DE
:105AC00004E030205A46179990476D1C0099481EF3
:105AD00000900029F5DC08E0029802995A46007807
