:020000040800F2
:10000000204700207D020008233D0008233000081F
:10001000213D0008ED0A00083D41000800000000F5
:10002000000000000000000000000000C101000806
:10003000010C00080000000015020008553F0008F0
:10004000970200089702000897020008970200082C
:100050009702000897020008B90C000897020008F0
:10006000970200089702000897020008970200080C
:1000700097020008970200089702000897020008FC
:1000800097020008970200089702000897020008EC
:1000900097020008970200089702000897020008DC
:1000A00097020008714000089702000897020008B4
:1000B00097020008970200089702000897020008BC
:1000C00097020008970200089702000897020008AC
:1000D000970200089702000897020008970200089C
:1000E000970200089702000897020008970200088C
:1000F000970200089702000897020008970200087C
:10010000970200089702000897020008970200086B
:10011000970200089702000897020008970200085B
:10012000970200089702000897020008970200084B
:10013000970200089702000897020008970200083B
:10014000970200089702000897020008970200082B
:10015000970200089702000897020008970200081B
:10016000970200089702000897020008970200080B
:10017000970200089702000897020008000000009C
:1001800097020008970200089702000897020008EB
:1001900097020008970200089702000897020008DB
:1001A000970200089702000897020008DFF80CD0B9
:1001B00000F0EAF8004800472544000820470020E6
:1001C0002B4B19680868B0E8F04F80F30988BFF33B
:1001D0006F8F4FF0000080F311887047000000001F
:1001E00006480068006880F3088862B661B6BFF30D
:1001F0004F8FBFF36F8F00DF00BF00BF08ED00E03F
:10020000DFF80C00016841F470010160704700BF25
:1002100088ED00E0EFF30980BFF36F8F144B1A688D
:100220001EF0100F08BF20ED108A20E9F04F10607B
:1002300008B44FF0500080F31188BFF34F8FBFF325
:100240006F8F05F051F84FF0000080F3118808BC63
:1002500019680868B0E8F04F1EF0100F08BFB0EC46
:10026000108A80F30988BFF36F8F704700BF00BF0B
:10027000CC000020EFF3058070470000064880475F
:1002800006480047FEE7FEE7FEE7FEE7FEE7FEE77B
:10029000FEE7FEE7FEE7FEE71D400008AD010008AF
:1002A0002DE9F05F0546002092469B4688460646AB
:1002B000814640241BE0284641464746224600F03E
:1002C00053F853465A46C01A914110D31146184666
:1002D000224600F03AF82D1A67EB01084F462246F5
:1002E0000120002100F031F817EB00094E41201EDB
:1002F000A4F10104DFDC484631462A464346BDE806
:10030000F09F40EA01039B0703D009E008C9121FD0
:1003100008C0042AFAD203E011F8013B00F8013BBF
:10032000521EF9D27047D2B201E000F8012B491EEB
:10033000FBD270470022F6E710B513460A46044682
:100340001946FFF7F0FF204610BD202A04DB203AB3
:1003500000FA02F1002070479140C2F1200320FA18
:1003600003F3194390407047202A04DB203A21FA16
:1003700002F00021704721FA02F3D040C2F12002BE
:100380009140084319467047064C074D06E0E06867
:1003900040F0010394E8070098471034AC42F6D3CC
:1003A000FFF708FF307800085078000870B58C1807
:1003B00010F8015B15F0070301D110F8013B2A1179
:1003C00006D110F8012B03E010F8016B01F8016B66
:1003D0005B1EF9D12B0705D40023521E0DD401F862
:1003E000013BFAE710F8013BCB1A921C03E013F82B
:1003F000015B01F8015B521EF9D5A142D8D3002060
:1004000070BD00007CB5054600F0DCF8044600F045
:10041000D3F802460020CDE900050748074B0068E5
:1004200000EB800101EBC00103EB81012346C96DA4
:1004300000F0D8FC7CBD000018000020D80100208E
:100440000A4B30B41B6803EB4304094B03EB8403F2
:100450009B68DD881C689B88DB1DDB08203A13FB4A
:1004600002F205FB024230BC00F0CCBB18000020B9
:10047000F0020020034840688068002800D0004750
:1004800070470000180000202DE9F04704460027BF
:1004900099468A461546B846104601E008F101081B
:1004A00010F8011B0029F9D100F086F8254A264EE4
:1004B0004B461168B9F1010F01EB410106EB8101D7
:1004C00089688988B0FBF1F002D0022B0BD105E0DE
:1004D000A0EB0800484304EB500003E0A0EB080049
:1004E00000FB014084B2904600F066F80146D8F85F
:1004F000000000EB400006EB80008068808807FB6E
:10050000101189B2814213D3012012E051462046D6
:10051000FFF796FFD8F800007F1C00EB400006EBC9
:100520008000BFB280686D1C8088204484B2DBE705
:1005300000202A780AB1012100E000210842E5D11B
:10054000BDE8F08718000020F002002010B50A4630
:10055000034600F023F8C088BDE81040584381B23C
:1005600003230020FFF790BF70B514460D460646E2
:1005700000F022F8074905FB0060096801EB8102E1
:1005800002EBC101044A02EB8101C96D41F8204030
:1005900070BD000018000020D80100200448054963
:1005A000006800EB400001EB8000806870470000AD
:1005B00018000020F002002001484068806A0047CF
:1005C0001800002001484068C06A00471800002059
:1005D00070B5214C1F480025206009206061012072
:1005E000A0611D20E0610320206240F20D106062D6
:1005F00040F24310A06240F21710E06240F2471050
:10060000206384F8365084F8345004F1E80084F80C
:10061000355008210160C021016104218161C903B5
:10062000416201F02BFD6560A560E560256100F089
:1006300059F8204601F094FB0949084848600068D1
:10064000804700F005F90648083000F0E7F8002080
:1006500070BD000000680140D80100203C0000206F
:100660001800002070B58EB000240E460546009498
:10067000FFF7A2FFCDE90104FFF7A4FF0996CDE93A
:100680000304FF20CDE905048DF830408DF831409A
:100690008DF832404FF4C060079007200890FFF7B4
:1006A0008BFF0A90FFF78EFF0B902A4669460A4897
:1006B00001F014FB094905EB450001EB8002631EC4
:1006C0005360074B93604FF07F4241F8202002486F
:1006D00001F02EFB0EB070BDD8010020F00200200A
:1006E0002000002030B5434887B00021026842F066
:1006F00080620260006800F0806005903D48143818
:10070000026842F400020260026802F400020592EC
:10071000026842F001020260026802F001020592E2
:10072000026842F002020260026802F002020592D0
:10073000026842F004020260026802F004020592BC
:10074000026842F008020260026802F008020592A4
:10075000026842F020020260026802F02002059264
:10076000026842F040020260006800F0400005901C
:1007700041F6580000900220CDE9010103900E20BF
:10078000049069461C4800F075FE4FF470601B4CE5
:1007900000906946204600F06DFE4FF4986000908E
:1007A0006946174800F066FE4820009069461548E3
:1007B00000F060FE201500906946134800F05AFED4
:1007C0004FF40C60114D00906946284600F052FE2F
:1007D00003200090092004906946204600F04AFE5C
:1007E0004FF4A05000906946284600F043FE07B041
:1007F00030BD0000443802400000024000040240C6
:1008000000080240000C02400014024000180240A0
:100810000149086070470000180000200449054A9B
:10082000096801EB410102EB81018860704700001B
:1008300018000020F00200200349044A096801EB77
:10084000410142F82100704718000020F00200200A
:1008500070B51B4819490423016000F134010222DC
:1008600007248B60C1E90024C1E903424A618A611F
:100870001021C0E903314021416101260024C0E973
:1008800001644FF4C071C0E906149102C0E9081474
:1008900089008162214600F05BF80949084834313B
:1008A00001F09CFF074D08B12E7000E02C7040F263
:1008B0006A5000F009F8287870BD0000400100A0DF
:1008C000C8030020280000202DE9F84F1F4C002508
:1008D000012608270095C4E90067C4E9026582463D
:1008E0004FF6FF7921464A46A1F1500001F0AAFFD8
:1008F000012000F073FC0220C4E90007C4E902658E
:1009000021464A46A1F1500001F09CFF03204FF020
:100910000408E56084E8810121464A46A1F15000BF
:1009200001F090FF4FF40C700090C4E90260C4E93C
:10093000008721464A46A1F1500001F083FF51464D
:10094000A4F15000BDE8F84F01F06BBF180400207F
:1009500030B587B005007DD04D480024016841F0D6
:100960000101016000684A4900F001000839059062
:10097000086840F480000860086800F48000059072
:10098000086840F002000860086800F00200059066
:10099000086840F004000860086800F00400059052
:1009A000086840F008000860086800F0080005903A
:1009B000086840F010000860086800F0100005901A
:1009C000086840F020000860086800F020000590EA
:1009D000086840F0400008600868694600F0400080
:1009E00005900220CDE9024001900C200490602087
:1009F0000090284800F03EFD0120009069462648FE
:100A000000F038FD4CF2037000906946234800F076
:100A100031FD4FF6837000906946214800F02AFDB1
:100A20004FF63F00009069461E4800F023FD48F253
:100A30003310009069461C4800F01CFD1B498020C3
:100A4000C1E901408000C860400008618000486141
:100A5000800000E01AE0C1E90604C000C1E9080412
:100A60000320C1E90A0412480C63086029630846A0
:100A70008D6300F01DFB0D4800F046FB00220F21A6
:100A8000382001F0C9FA382001F0BAFA07B030BDB9
:100A9000383802400004024000080240000C0240C6
:100AA0000010024000140240001802400803002019
:100AB0001064024070B50B4D0B4C012628806980F4
:100AC000616882208847A0F50061113908D1EC6087
:100AD0000026216882208847E868C168822088470C
:100AE000304670BD2C00002074000020FEE7F0B5F9
:100AF0000468059E656C46EA034305F040451D43C6
:100B000065640368DA634268B2F5403F02D000686A
:100B1000C160F0BD01F47F4201F47F0C866801F0F2
:100B20007F4301F47F0701F47F45CCB242EA0C0217
:100B3000BEB1012E16D001F47F02D20CC1F3C40164
:100B4000022E11D0032E14D0190F3A0D2D0B2309AC
:100B50002C0144EA022242EA01321A43006882630D
:100B6000F0BD1A432243F9E7AB0A5B0143EAC22214
:100B700006E0DB0FEC0A640144EA822242EAC33257
:100B80000A43EBE701681823CAB2103AB2FBF3F24A
:100B9000054B6FF30901032A9B5CC36500D9091D4E
:100BA0008165084670470000EC77000810B50146E3
:100BB00000208B698A6A4FF0C07453B1B3F5005FAF
:100BC00015D072B1012A0CD0022A0AD0032A09D109
:100BD00004E01AB1012A06D0022A03D1C96AC90168
:100BE00000D5012010BDC96AA142FAD010BD002A6B
:100BF000F7D0012AF2D0022AF3D0032AF3D010BD95
:100C0000704700002DE9F74FDFF8A4A00026DAF8BE
:100C1000000000EB4001274800EB810080688588D8
:100C2000C788E81D834620F00700401B00F0FF093D
:100C30003AE000BF4FEADB010298012901FB060000
:100C40000BD002290BD0017842780904807841EA60
:100C5000022141EA000800241FE0007801E000883A
:100C600040BA8046F7E7291B49440120491E8840C5
:100C700010EA080FDAF8000000EB40010D4802D03E
:100C800050F8212002E000EB8100426800980199B1
:100C9000204480B2FFF768FC641CAC42E3D30198A7
:100CA000401C80B2761C0190BE42C3D3BDE8FE8FCB
:100CB00018000020F0020020012000F0CFBB704798
:100CC00030B5D1E901231A43D1E903352B431A4347
:100CD0004B690C681A438B691A43D1E90735012C1B
:100CE000496A046807D01A432A436FF30E040A4383
:100CF000224302600AE024F4F8442B4321430B43CF
:100D0000416803606FF30E010A434260002030BD6A
:100D1000426942EA4101416100207047F8B514463A
:100D20000546D1E9000210438A686FF01F03C968C5
:100D300003EB421242EA412108430090286100F08F
:100D400089FC064609E0601C07D024B100F082FC53
:100D5000801BA04201D90320F8BDA8698006F2D407
:100D60000020F8BDF0B56FF00F05D1E9003405EBB8
:100D700004145B1E23432E018C682F0306EB04240E
:100D800023434FEA054C0C8A8E8ACD68097E4FF0CA
:100D90007F4E07EB04440CEB06560EEB0161012A73
:100DA0000CD082683F1107EB05352B4323433343B7
:100DB00002F070420B43134383600FE08768084AD8
:100DC00017402A03A2F580523243C5683A432343B1
:100DD00005F070450B432B438260C3600020F0BDDB
:100DE000FF0F0FFF2DE9F8430E460746DDE908180F
:100DF000124815464FF4403242600022C0E90221F9
:100E00000F491C46016000F071F8002814D13946E2
:100E10000A4800F017F800280ED12B46324641460A
:100E20000648009400F02AF9002805D1BDE8F843EF
:100E30000A21024800F09CB8BDE8F8838002002037
:100E400000B0024070B500EB011290F83830183253
:100E5000012B20D0012580F83850022380F839304A
:100E600054680A2C19D0092C17D01389167B1B043F
:100E700043EA066323431C4CB1B10168CE692640A6
:100E80001E43CE6103681168196151680A291ED09A
:100E900009291CD020E0022070BDD368168903F018
:100EA0007F4343EA0643E5E70668716A2140194338
:100EB000716203681168996151680A2901D0092992
:100EC0000AD1D168026821F07F41916204E0D168C3
:100ED000026821F07F41116280F83950002180F8CA
:100EE0003810084670BD0000F0FFFC0070B504002B
:100EF00004D094F83900002510B106E0012070BD3F
:100F000084F83850204600F01FF8022084F8390099
:100F100020680168626821F4403111430160206853
:100F2000416BA26821F00701114341632068016C05
:100F3000E2686FF30D0111430164E563012084F859
:100F40003900002070BD000008B5006806498842DD
:100F500008D10648016841F400010160006800F40E
:100F60000000009008BD000000B002403038024090
:100F70002DE9F84300260446009600680D460068F7
:100F80004FF00407C0074FF0030825D000F062FBC4
:100F900081461DE04068009010F0210F0FD00098AE
:100FA000800603D5E06B40F00200E0630098C007C4
:100FB00003D0E06B40F00100E063212032E0681CC8
:100FC00006D0C5B300F046FBA0EB0900A8423CD810
:100FD000206841688907DDD52068C169890602D487
:100FE000406A800640D500F035FB814638E0406815
:100FF000009010F0290F1FD00098000703D5E06B78
:1010000040F00400E0630098800603D5E06B40F0F8
:101010000200E0630098C00703D0E06B40F00100DD
:10102000E06329202168886084F8397084F838608A
:101030000120BDE8F88308E0681C11D02DB100F054
:1010400009FBA0EB0900A8420AD954F83C0F40F074
:10105000200044F8040984F8018026700320E8E7A2
:1010600020684168C906C2D5216812208860012025
:1010700084F8390084F838600020DAE738B504468F
:10108000049894F83850012D10D0012584F8385078
:10109000022584F8395000902046FFF728FD20688B
:1010A000016841F001010160002038BD022038BD17
:1010B00070B5040025D094F83500022820D02068AF
:1010C000016821F0010101602068002505602068A9
:1010D0004560206885602068C560206805612168DA
:1010E000212048612046FFF74DFD94F85C203F2108
:1010F00091408160656584F8355084F83450002053
:1011000070BD012070BD00002DE9F041044600F0E3
:10111000A1FA06465CB1002584F83450022084F818
:1011200035002068016821F0010101600DE0012017
:10113000BDE8F08100F08EFA801B052805D920203B
:101140006065032084F83500F2E720680068C00776
:10115000F0D12268116820480140D4E90103184306
:10116000D4E903363343184363691843A36918432A
:10117000E3691843236A18430843616A042903D1C9
:10118000D4E90B1319430843106020684069666A6C
:1011900020F0070130460E43012704280CD1A06A35
:1011A0000643E06A40B12046FFF700FD20B1402031
:1011B000606584F83570BAE7206846612046FFF71D
:1011C000E1FC94F85C203F2191408160656584F8E2
:1011D00035700020ACE700003F8010F070B5044689
:1011E00000F038FA0546601C02D004480078044438
:1011F00000F030FA401BA042FAD370BDBC000020C2
:101200002DE9F0412B4886B0016800294FD14FF0FD
:101210000108C0F8008028480024016841F001015D
:1012200001600068022500F0010005904FF63F00C4
:10123000CDE9000502AA03260C2782E8D000694602
:101240001E4800F017F902AA694682E8D000CDE9ED
:1012500000851B4800F00EF948F23310CDE9000577
:1012600002AA694682E8D000164800F003F94FF65A
:101270008370CDE9000502AA694682E8D0001248D1
:1012800000F0F8F84CF20370CDE9000502AA6946B7
:1012900082E8D0000D4800F0EDF86020CDE90005AF
:1012A00002AA694682E8D000094800F0E3F806B0D7
:1012B000BDE8F081A0000020383802400014024050
:1012C000000802400018024000100240000C0240DA
:1012D000000402402DE9F04FDFF838B100224FF052
:1012E00001094FF00F0A00BF09FA02F401EA0403F2
:1012F000A3427DD1066857000325BD40AE4306607A
:10130000D60800EB8606D6F820C057074FEAD76804
:101310000AFA08F72CEA070CC6F820C08668AE4324
:1013200086604668A6434660C468AC43C46022F049
:1013300003055D44D5F808789407260F0AFA06F4E9
:10134000DFF8D4C02740604502D14FF0000C40E0E8
:10135000DFF8C8C0604502D14FF0010C39E0DFF87A
:10136000C0C0604502D14FF0020C32E0DFF8B4C0DB
:10137000604502D14FF0030C2BE0DFF8ACC06045B4
:1013800002D14FF0040C24E0DFF8A0C0604502D188
:101390004FF0050C1DE0DFF898C0604502D14FF01A
:1013A000060C16E0DFF88CC0604502D14FF0070C48
:1013B0000FE0DFF884C0604502D14FF0080C08E070
:1013C000DFF878C0604502D14FF0090C01E04FF022
:1013D0000A0C0CFA06FCBC4516D1D5F80868A643E1
:1013E000C5F80868164C25689D432560241D00E05B
:1013F0000AE025689D432560241D25689D432560DE
:10140000241D25689D432560521C102AFFF46CAFF3
:10141000BDE8F08F003001400000024000040240AF
:1014200000080240000C024000100240001402407C
:1014300000180240001C024000200240002402402C
:10144000003C014010B5044C606803F0C7F8E06848
:10145000BDE8104003F04EB8A8000020044910B5C4
:101460000A68024202D00860FFF7ECFF10BD0000DE
:10147000143C01402DE9F84FDFF890B100224FF005
:1014800001084FF0030A4FF00F090BF1040E00BFE3
:101490000B6808FA02F42340A3426ED14D68022D76
:1014A00001D0122D0ED1D50800EB850CDCF82050B0
:1014B0005607F70E09FA07F6B5430E69BE402E43EC
:1014C000CCF82060066855000F790AFA05FC07F091
:1014D000030726EA0C06AF40374307604E68012E2B
:1014E00005D0022E03D0112E01D0122E0ED1876806
:1014F000CE6827EA0C07AE403E4386604668A643A6
:101500000C79C4F30014944034434460C4688E687A
:1015100024EA0C04AE402643C6604C68E4006FD554
:101520003B4C256845F480452560246822F003057E
:1015300004F480440094374C2E19D6F808489507D7
:101540002F0F09FA07F5AC43334DA84201D100250E
:101550002EE0324DA84201D1012529E0304DA842AC
:1015600001D1022524E02F4DA84201D103251FE01F
:101570002D4DA84202D104251AE041E02B4DA8428E
:1015800001D1052514E02A4DA84201D106250FE01E
:10159000284DA84201D107250AE0274DA84201D1D4
:1015A000082505E0254DA84201D1092500E00A25BE
:1015B000BD402543C6F80858DBF800405D464E683C
:1015C0009C43F60300D51C432C60DEF800407546B2
:1015D0004E689C43B60300D51C432C600B4D083568
:1015E0002C684E689C43F60200D51C432C60074DC6
:1015F0000C352C684E689C43B60200D51C432C6009
:10160000521C102AFFF444AFBDE8F88F003C0140A3
:101610004438024000300140000002400004024013
:1016200000080240000C024000100240001402407A
:1016300000180240001C024000200240002402402A
:1016400042694A40426170470AB1816170470904AA
:10165000FBE700000148806870470000BC000020E4
:1016600090F83D20202A01D002207047242280F8E3
:101670003D200268136823F0010313600268536A77
:1016800023F0100353620268536A0B4353620168EC
:101690000A6842F001020A60202180F83D10002013
:1016A000704790F83D20202A01D002207047242264
:1016B00080F83D200268136823F00103136003687B
:1016C0005A6A22F00F020A4391B2596201680A680D
:1016D00042F001020A60202180F83D10002070478E
:1016E00010B5040013D0242084F83D002068016860
:1016F00021F001010160204600F02EFA0020206454
:1017000084F83D0044F8300FA073207310BD012011
:1017100010BD90F83D00704770B5040004D094F8F7
:101720003D00002510B106E0012070BD84F83C505A
:10173000204600F02FFA242084F83D00206801683C
:1017400021F00101016000F06BFE33492268B0FB1B
:10175000F1F15160314A6368934206D94FF49673B0
:1017600059434FF47A73B1FBF3F12368491C1962B2
:10177000616891420BD84900B0FBF1F2C2F30B0251
:10178000042A01D2042019E0B0FBF1F016E0A368AE
:101790009BB301EBC10202EB0112B0FBF2F242F487
:1017A0008042120530D04BB301EBC10202EB0111B4
:1017B000B0FBF1F040F4804040F400402168C86183
:1017C000D4E90701084321680860D4E903100843FD
:1017D00021688860D4E9050108432168C860206851
:1017E000016841F0010101602564202084F83D007A
:1017F000256384F83E50002070BD00E006E001EB58
:101800004102B0FBF2F2CCE70120D7E701EB410146
:10181000B0FBF1F0D0E7000040420F00A0860100CD
:101820002DE9FF4F83B09A46DDE9118793460446C0
:10183000DDF84090FFF70EFF054694F83D002028A4
:1018400074D11923012272492046009501F0EDFC64
:101850000028F5D194F83C00012867D0012084F8D5
:101860003C0020680168C90703D1016841F001010B
:1018700001602068016821F400610160222084F881
:101880003D00402084F83E0000262664C4F82490E1
:10189000A4F82A805F48E062608D2085CDE900755C
:1018A00053465A462046049901F0D0FB28B1206CDB
:1018B00084F83C60042843D076E0208DC8B101282C
:1018C00020D00228206823D0416980690090208DB3
:1018D00003286BD801282AD04F4902283B464FF0F5
:1018E000000200955BD08846204601F09EFCE8BBD4
:1018F00040E02068416981690091016841F400710C
:10190000016076E02068016821F480610160F0E701
:10191000016821F4806101602068016841F4006180
:101920000160206841698069009062E06EE02A46AB
:101930003946204601F0EEFC30B1206C202833D02F
:10194000012007B0BDE8F08F206847E020680168FB
:1019500041F40071016020680169606A421C6262A2
:101960000170208D401E2085608D00E01CE0401E2F
:101970006085E9E72068016821F4806101602068E2
:101980000169606A421C62620170208D401E2085E0
:10199000608D401E60853B460022414600952046F2
:1019A00001F043FC0028D1D00320CAE72A4639467B
:1019B000204601F0AFFC0028BFD120680169606AB1
:1019C000421C62620170208D401E2085608D401E89
:1019D000608520684169C94349070AD40169606A82
:1019E000421C62620170208D401E2085608D401E69
:1019F0006085208D00287FF46AAF202084F83D00A8
:101A000084F83E6084F83C6000209AE7022098E762
:101A1000020010000000FFFF040001002DE9FF4F4D
:101A200083B09A46DDE9118793460446DDF840907D
:101A3000FFF710FE064694F83D0020287DD11923BB
:101A4000012243492046009601F0EFFB00287CD19B
:101A500094F83C00012878D0012084F83C002068EC
:101A60000168C90703D1016841F0010101602068E4
:101A7000016821F400610160212084F83D004020CC
:101A800084F83E0000252564C4F82490A4F82A8038
:101A90003048E062608D2085CDE9007653465A4695
:101AA0002046049901F04AFB80B3206C84F83C5036
:101AB000042848D008E032463946204601F05BFC55
:101AC00030B1206C042839D0032007B0BDE8F08F76
:101AD000606A411C6162216800780861208D401EA7
:101AE00080B22085618D491E618521684A69D24393
:101AF00052070BD468B1606A421C626200780861C8
:101B0000208D401E2085608D401E6085208D002820
:101B1000D1D132463946204601F060FB0028D0D1B1
:101B200054F83D0B016841F400710160202004F875
:101B30001E09E57765770020C7E706E020680168A1
:101B400041F4007101600120BFE70220BDE7000001
:101B5000020010000000FFFF10B50068094988422C
:101B60000FD10948016821F40001016041150748BF
:101B7000FFF7B0FBBDE810404FF480710448FFF759
:101B8000A9BB10BD005C0040403802400008024084
:101B900000000240F0B587B0044614216846FEF705
:101BA000C9FB1C492068884231D11B4800240168C8
:101BB00041F004010160016801F004010591016830
:101BC00041F0010101600068122500F0010005905C
:101BD0004FF4007001268DE861000427CDE903472A
:101BE00069460E48FFF746FC30028DE86100CDE9FA
:101BF000034769460A48FFF73DFC07481030016873
:101C000041F400010160006800F40000059007B095
:101C1000F0BD0000005C0040303802400008024087
:101C200000000240024881680278114481607047D8
:101C3000BC0000200B4810B5016841F40071016040
:101C4000016841F480610160016841F480710160C4
:101C5000032000F001FA002000F006F800F0B4F9CB
:101C6000002010BD003C024010B5014688B00022A3
:101C7000192000F0D1F9192000F0C2F9134800240E
:101C8000016841F001010160006805A900F0010050
:101C90000690684600F0A4FB00F0D2FB0C4940001F
:101CA000B0FBF1F10C480B4A491E026040F2E732EA
:101CB000C0E90324C0E9011401F0CAF810B1012001
:101CC00008B010BD044801F0DFF8F9E744380240DD
:101CD00040420F0000000140F00500202DE9F041D6
:101CE000044690F8A00016460F4601281DD0012595
:101CF00084F8A050022084F8A10006EB860000EBD7
:101D0000C60004EB800034223830FEF7FAFA32467F
:101D10003946204601F01AFD2068456284F8A1503A
:101D2000002084F8A000BDE8F0810220FBE700005D
:101D300090F8A01001290ED0012100F8A01F022266
:101D40004270064A136843F48033136041700021E7
:101D50000170084670470220704700001868014073
:101D600070B5040004D094F8A100002510B106E07D
:101D7000012070BD84F8A050204600F06BF80220CE
:101D800084F8A1002068816921F070418161D4E963
:101D900001010843D4E903121143084321688A6909
:101DA0001043886121688A68294802408A60A18AB4
:101DB0000A0421688B68A669334313438B6021684A
:101DC000CA680240CA60A18B0B042168CA68266AEF
:101DD00032431A43CA6021680A6902400A61A18C31
:101DE00022680B041169A66A314319431161216805
:101DF0004A6902404A61A08D010420684269236B50
:101E00001A430A43426194F835002168020294F8AB
:101E10003600CB6A03F07F43CB622168CB6A94F82B
:101E2000346042EA004033430343CB622068416B95
:101E300041F0060141632068816941F0010181613F
:101E4000C4F8A450012084F8A100002070BD000057
:101E500000F800F02DE9F04186B0044614216846F0
:101E6000FEF768FA5049206888427CD14F48002428
:101E7000016841F080610160006800F080600590B9
:101E80004A481438016841F020010160016801F0FE
:101E900020010591016841F001010160016801F034
:101EA00001010591016841F002010160016801F042
:101EB00002010591016841F040010160016801F0F3
:101EC00040010591016841F004010160016801F0E1
:101ED00004010591016841F00801016000680225D4
:101EE00000F0080005904FF480600090CDE90154A7
:101EF0000E26CDE9034669462D48FFF7BBFA41F6A9
:101F000058000090CDE90154CDE9034669462948BF
:101F1000FFF7B0FA03200090CDE901540927DFF85C
:101F20009880CDE9034769464046FFF7A3FA4FF48E
:101F300070600090CDE90154CDE903466946404602
:101F4000FFF798FA4FF40C600090CDE90154DFF8E8
:101F50006C80CDE9034669464046FFF78BFA4FF4A3
:101F60009860009000E01CE0CDE90154CDE9034603
:101F700069461348FFF77EFA48200090CDE90154E6
:101F8000CDE9034669460F48FFF774FA4FF4A050B5
:101F90000090CDE90154CDE9034769464046FFF77B
:101FA00069FA06B0BDE8F08100680140443802409B
:101FB00000140240000002400004024000180240E9
:101FC00000080240000C02400C4882B0016841F455
:101FD00080410160006800F4804000900748001FC5
:101FE000016841F0805101600068002200F08050DB
:101FF00000900F21901E02B000F00EB8443802404D
:1020000000F01F02012191404009800000F1E02012
:10201000C0F8001170470000F0B40E4B1B680C466E
:10202000C3F30223C3F10705042D00D90425191DAC
:10203000072901D2002300E0DB1E012606FA05F184
:10204000491E214099409E40761E16403143F0BC07
:1020500001F068BE0CED00E0064900F007020868D8
:102060004FF6FF03184040EA0220034A104308607D
:10207000704700000CED00E00000FA052DE9F84F74
:1020800004460068DFF804A2814F824DC1074FF07B
:1020900001084FF0000601D180073CD5CAF86860FE
:1020A000FFF7D8FA814605E0FFF7D4FAA0EB090064
:1020B000022878D828680001F6D42078C10776482D
:1020C00005D06168227A890141EA027101602178B4
:1020D000890711D501686268237B9201C1F30271FF
:1020E00042EA036242EA017101603868E16920F066
:1020F0001F00491E08433860CAF86880FFF7AAFA33
:10210000814605E0FFF7A6FAA0EB090002284AD8AD
:1021100028680001F6D52068410701D400074CD596
:10212000CAF87060FFF796FA814605E0FFF792FA69
:10213000A0EB0900022836D82868C0438000F5D5F6
:1021400020784107554814D501682269237D920102
:10215000C1F3027142EA036242EA01710160396827
:10216000226A6FF0FF0321F4F85103EB02221143BE
:1021700039602178090710D501682269C1F303612C
:10218000920142EA0161227E41EA027101603868EF
:10219000616A20F4403008433860CAF87080FFF765
:1021A00059FA074605E048E0FFF754FAC01B022839
:1021B00043D82868C0438000F6D42078800653D5E1
:1021C00034484030016841F0805101600068344D6E
:1021D00000F080500090286840F480702860FFF77D
:1021E00039FA074605E000BFFFF734FAC01B0228A2
:1021F00023D82868C005F7D5274D143D286810F46A
:10220000407020D0218D01F4407181421BD028689C
:10221000244920F44070C1F800800E6028602868CE
:10222000C00710D0FFF716FA064641F2883707E0DC
:10223000FFF710FA801BB84202D90320BDE8F88FDF
:1022400028688007F4D5A16A1248C1F3012208303A
:10225000032A13D0016821F4F81101602868218D48
:10226000C1F30B01084328602078C00604D50E494D
:1022700094F82C00C1F8E0010020DFE702680B4B66
:1022800022F4F81219400A430260E7E700004742CF
:102290008C380240003802408438024088380240BE
:1022A00000700040400E474200104742FFFCFF0F05
:1022B0002DE9F0470E46050065D0DFF81481D8F807
:1022C0000000F7B200F00F00B04207D288F80070AB
:1022D000D8F8000000F00F00B04254D128683D4CFF
:1022E000810712D5400703D5206840F4E0502060F4
:1022F0002878000703D5206840F4604020602068FB
:10230000A96820F0F000084320602878C0072DD08D
:10231000304968680839012812D0022813D00328F0
:1023200011D00968890700292DDA216821F00301FD
:1023300001432160FFF78EF9814641F2883A0EE0B1
:1023400009688903EFE709688901ECE7FFF782F97B
:10235000A0EB0901514502D90320BDE8F0872068B0
:10236000696800F00C00B0EB810FEFD1D8F80010D5
:10237000404601F00F01B14207D90770006800F034
:102380000F00B04201D00120E7E72878400705D5CB
:102390002068E96820F4E0500843206028780007AE
:1023A00006D52068296920F4604040EAC100206019
:1023B00000F056F82168084AC1F30311515CC84087
:1023C000064908600020FFF74FFC0020C5E7000029
:1023D000003C024008380240F4770008C8000020A2
:1023E0000F2202600C4A136803F003034360136872
:1023F00003F0F0038360136803F4E053C3601268D2
:102400004FF4E05303EAD20202610448006800F08E
:102410000F0008607047000008380240003C02408E
:102420000448054900680968044AC1F38221515CE7
:10243000C8407047C80000200838024004780008EF
:102440000448054900680968044AC1F34231515CF7
:10245000C8407047C80000200838024004780008CF
:10246000154810B5006810F00C02144813D0411044
:10247000042A0FD0082A0ED10F4C241F226823688B
:1024800002F03F025B0207D52068C0F38810A0FB72
:10249000010106E0084610BD2168C1F38811A1FBC7
:1024A00000010023FDF7FCFE2168C1F30141491C36
:1024B0004900B0FBF1F010BD083802400024F400E0
:1024C0002DE9F84F050076D02878DFF8F8B2BE4C39
:1024D000C00749D0DBF800105846C1F3810101293B
:1024E00008D00068C0F3810002280AD1201D0068CE
:1024F000400206D52068800336D568680028E2D0FF
:1025000032E06868B0F5803F10D0B0F5A02F2068A9
:1025100010D020F480302060206820F480202060DB
:102520006868A0B1FFF796F806460CE0206840F412
:102530008030F4E740F480202060F7E7FFF78AF866
:10254000801B642873D820688003F7D50CE0FFF760
:1025500081F8064605E000BFFFF77CF8801B642881
:10256000F0D820688003F7D42878DFF860828007ED
:102570004FF000093ED5DBF80010584611F00C0F63
:1025800009D00068C0F3810002280BD18D48001FDC
:102590000068400206D42068800715D5E868012845
:1025A00009D111E0E868B8B10120C8F80000FFF7D0
:1025B00051F8064605E002E1FFF74CF8801B0228BF
:1025C000C0D820688007F7D52068296920F0F80076
:1025D00040EAC10020600DE0C8F80090FFF73AF82B
:1025E000064604E0FFF736F8801B02281FD8206853
:1025F0008007F7D42878000722D5724E744869699D
:102600006C3671B101210160FFF724F8074604E040
:10261000FFF720F8C01B022809D830688007F7D5DB
:102620000EE0C0F80090FFF715F8074605E083E0DC
:10263000FFF710F8C01B02287ED830688007F7D457
:102640002878400768D5DFF87CA100270AF1380A0E
:10265000DAF80000C0000BD4DAF8001041F0805125
:10266000CAF80010DAF80000012700F0805000904E
:10267000584E3068C00510D4306840F48070306027
:10268000FEF7E8FF009005E0FEF7E4FF0099401A2E
:10269000022851D83068C005F6D54A4EA868683679
:1026A00001280FD00528306810D020F001003060DC
:1026B000306820F004003060A868B8B1FEF7CAFFA7
:1026C00000900FE0306840F00100F4E740F00400B3
:1026D0003060F7E7FEF7BEFF0099411A41F28830FB
:1026E000814264D830688007F4D50EE0FEF7B2FF6F
:1026F000009007E0FEF7AEFF0099411A41F28830E2
:10270000814254D830688007F4D42FB1DAF8001031
:1027100021F08051CAF80010A869C0B3DBF800109E
:10272000C1F3810102294AD00228484607D0C8F8DF
:102730006000FEF78FFF00E039E005463AE04746CB
:10274000C8F86000FEF786FF064604E0FEF782FF49
:10275000801B02282BD820688001F7D4D5E9070117
:102760000843A96A1C4A490802EB01416A6A41EA26
:102770008211084395F82C1040EA01611148001FAE
:10278000016001203866FEF765FF054605E014E0AC
:10279000FEF760FF401B022809D820688001F7D5AA
:1027A0000BE000BFFEF756FF401B022802D90320B2
:1027B000BDE8F88F20688001F4D40020F8E70120FC
:1027C000F6E70000083802400038024000004742A7
:1027D000800E4742007000400000FFFF70B50D46BC
:1027E000040003D094F82C0010B107E0012070BD64
:1027F000002084F82D00204600F011F8022084F813
:102800002C00211D2068FEF75BFAD4E9000229465E
:10281000FEF7A8FA012084F82C00002070BDFEF716
:10282000EFBC10B5044690F82C00022809D0022015
:1028300084F82C002068FEF76BFA012084F82C0045
:10284000002010BD70B5044690F82C000D460228FB
:102850000DD0022084F82C002068FEF75FFA28686B
:10286000022805D05FF0010084F82C00002070BD24
:102870000520F9E710B5040011D0022084F85100BA
:102880002068016821F040010160204600F04CF80A
:102890000020606584F8510084F8500010BD0120CC
:1028A00010BD90F85100704770B5040005D00025A8
:1028B000A56294F8510010B106E0012070BD84F8C3
:1028C0005050204600F046F8022084F8510020685D
:1028D000016821F040010160D4E901010843D4E915
:1028E00003121143084361690843218B01F400710D
:1028F0000843E1690843216A0843A16A0843216843
:102900000860A069042101EA1040616A0843216857
:1029100048602068C16921F40061C16165650120DA
:1029200084F85100002070BD00680749884209D131
:102930000648016821F4801101604FF46071044879
:10294000FEF7C8BC70470000005001404438024008
:102950000014024010B586B0044614216846FDF705
:10296000E9FC13492068884220D1124800210268FE
:1029700042F480120260006800F4801005900D4857
:102980001438026842F020020260006800F0200063
:1029900005904FF4607000900220CDE90101052000
:1029A000CDE9031069460448FEF764FD06B010BD8A
:1029B0000050014044380240001402402DE9F84F15
:1029C000044640680026984617460D464FF0040915
:1029D000B0F5827F01D1A06890B194F85000012831
:1029E00019D04FF0010B84F850B0FEF733FE009081
:1029F00094F851004FF0000A01280ED002267FE023
:102A000084F8519013460A462046CDF8008000F025
:102A100031F9BDE8F88F0220FBE7002D6FD0002FC1
:102A20006DD084F85190C4F854A0A563A787E787B8
:102A3000C4F830A0A4F834A0A4F836A0C4F840A08C
:102A4000C4F844A0A0684FF40047B84204D12068FD
:102A5000016821F48041016020680168490603D4BF
:102A6000016841F040010160E068B8B133E02068DE
:102A70008168C90706D0007B05F8010BE08F401E76
:102A8000E0870BE0B8F1000F23D0B8F1FF3F05D08D
:102A9000FEF7E0FD0099411A41451AD2E08F002867
:102AA000E5D11BE020688168C90706D0C06825F819
:102AB000020BE08F401EE0870DE0B8F1000F08D058
:102AC000B8F1FF3F07D0FEF7C5FD0099411A414517
:102AD00001D3032614E0E08F0028E3D16068B0F54D
:102AE000827F0AD1A068B84202D0B0F5806F04D1CD
:102AF0002068016821F040010160606D00B101268D
:102B000084F851B084F850A0304682E72DE9F84FA0
:102B1000044690F850000026994617460D460128B5
:102B20000DD04FF0010B84F850B0FEF793FD8046B6
:102B300094F85100B246012804D0022694E0022005
:102B4000BDE8F88F002D7BD0002F79D0032084F8CA
:102B50005100C4F854A02563A786E786C4F838A0BE
:102B6000A4F83CA0A4F83EA0C4F844A0C4F840A037
:102B7000A068B0F5004F04D12068016841F480419D
:102B8000016020680168490603D4016841F04001F2
:102B90000160E068B0F5006F606804D030B3E08E8B
:102BA000012823D03EE010B1E08E01281AD135F87B
:102BB000021B206805E020688168890706D535F882
:102BC000021BC160E08E401EE0860BE0B9F1000FF1
:102BD00034D0B9F1FF3F05D0FEF73CFDA0EB080172
:102BE00049452BD2E08E0028E5D11EE0216815F87A
:102BF000010B087306E020688168890706D515F87F
:102C0000011B0173E08E401EE0860BE0B9F1000F5E
:102C100014D0B9F1FF3F05D0FEF71CFDA0EB080171
:102C200049450BD2E08E0028E5D14B460122022116
:102C30002046CDF8008001F095F810B1032613E08E
:102C400011E042464946204601F07CF818B10126C1
:102C50002020606508E0A06818B92068C168806815
:102C60000090606D00B1012684F851B084F850A046
:102C7000304665E72DE9F84F044690F850000026ED
:102C80000A9F9A4693460D464FF0010801280ED040
:102C9000012084F85000FEF7DDFC814694F85100D5
:102CA000616801280CD0B1F5827F07D102E00220D3
:102CB000BDE8F88FA16809B9042801D00226BDE05B
:102CC00055B1BBF1000F07D0BAF1000F04D094F852
:102CD0005100012802D004E00126AFE0052084F86D
:102CE000510000206065C4F838B0A4F83EA0A4F8F4
:102CF0003CA02563A4F836A0A4F834A02064606446
:102D000020680168490603D4016841F04001016070
:102D1000E068B0F5006F606804D0E8B3E08E012889
:102D20003BD06AE010B1E08E01282ED1216835F841
:102D3000020BC860E08E401EE08626E0B8F1000F6E
:102D40000DD0E08E58B120688168890707D535F825
:102D5000021BC160E08E401EE0864FF00008E08F4D
:102D600058B120688168C90707D0C0682BF8020BEA
:102D7000E08F401EE0874FF00108781C05D0FEF779
:102D800069FCA0EB0900B84246D2E08E0028D5D1FC
:102D9000E08F0028D2D136E0FFE7216815F8010B5B
:102DA0000873E08E401EE08627E000BFB8F1000FF8
:102DB0000DD0E08E58B120688168890707D515F8D5
:102DC000011B0173E08E401EE0864FF00008E08F8B
:102DD00058B120688168C90707D0C0680BF8010B9B
:102DE000E08F401EE0874FF00108781C05D0FEF709
:102DF00031FCA0EB0900B8420ED2E08E0028D5D1FC
:102E0000E08F0028D2D13B46012202212046CDF896
:102E1000009000F0A7FF08B103260FE04A463946AC
:102E2000204600F08FFF18B101262020606505E0E4
:102E3000A06818B92068C16880680090012084F8F3
:102E40005100002084F85000304631E77047704749
:102E500010B5040003D094F8390010B107E0012048
:102E600010BD002084F83800204600F00CF8022045
:102E700084F83900211D206801F000F9012084F850
:102E80003900002010BD70470168CA6842F0010295
:102E9000CA600068016841F00101016000207047CC
:102EA000704770B50446006801694FF00005C943DA
:102EB000890715D4C168C943890711D4E91E016186
:102EC00001202076206880698007204602D0FFF725
:102ED000E7FF04E000F098F8204600F096F8257629
:102EE00020680169C943490717D4C168C943490724
:102EF00013D46FF0040101610220207620688069FC
:102F000010F4407F204602D0FFF7CAFF04E000F033
:102F10007BF8204600F079F8257620680169C943DE
:102F2000090716D4C168C943090712D46FF0080114
:102F30000161042020762068C0698007204602D005
:102F4000FFF7AEFF04E000F05FF8204600F05DF808
:102F5000257620680169C943C90617D4C168C943E9
:102F6000C90613D46FF01001016108202076206893
:102F7000C06910F4407F204602D0FFF791FF04E0C3
:102F800000F042F8204600F040F8257620680169FC
:102F9000C943C90708D1C168C943C90704D1891EFB
:102FA0000161204600F032F820680169C943090632
:102FB00009D4C168C943090605D46FF080010161D5
:102FC0002046FFF743FF20680169C943490609D439
:102FD000C168C943490605D46FF04001016120462C
:102FE00000F01EF820680169C94389060BD4C16846
:102FF000C943890607D46FF0200101612046BDE86E
:103000007040FFF724BF70BD7047704700680349E8
:10301000884201D1FEF706BE704700000000014063
:103020007047FEE701684A69D24352050CD46FF439
:1030300080624A6104210164002140F8301F20228F
:103040004273017301207047002070472DE9F84F4B
:103050000446006889460B9D01689846174641F46E
:10306000806101602068016841F480710160009511
:103070004FF0011A0022514620460A9B00F0D5F875
:10308000F0BB216809F0FE0008610AF1010B2B4634
:10309000594620460A9A00F0F9F818B1206C042825
:1030A00012D03AE020684169806900902A462046A3
:1030B0000A9900F060F950B1206C04282DD12068E5
:1030C000016841F4007101600120BDE8F88FFEB293
:1030D000B8F1010F09D02168380A08612A46204654
:1030E0000A9900F048F90028E6D1206806612A46CE
:1030F00020460A9900F03FF90028DDD1206800E061
:103100000BE0016841F48071016000950022514696
:1031100020460A9B00F089F808B10320D5E7216812
:1031200009F0FF0040F0010008612B465946204697
:103130000A9A00F0ABF80028B0D1C6E72DE9F843B1
:10314000044600680D46DDE9089701689846164672
:1031500041F4807101604B4600224FF0011120467E
:10316000009700F062F8E8B9216805F0FE000861F8
:103170003B464A461849204600F088F828B1206CA2
:1031800004280FD10120BDE8F883206841698069D7
:1031900000903A464946204600F0EDF820B1206CF8
:1031A000042813D00320EEE7F5B2B8F1010F09D0DF
:1031B0002168300A08613A464946204600F0DBF8AB
:1031C0000028ECD1206805610020DCE72068016858
:1031D00041F400710160D5E70200010070B51646A8
:1031E0000D4604461AE02046FFF71CFF08B10120F7
:1031F00070BD681C12D025B1FEF72CFA801BA842C6
:103200000CD954F8400F40F0200044F81009002079
:103210002060202161732073032070BD2068406905
:10322000C0434007DFD4002070BD2DE9F0471E46A3
:1032300090460D460446C1F30747DDF8209012E0A2
:10324000701C10D02EB1FEF705FAA0EB0900B042B9
:1032500009D9002044F8300F20216173A073207336
:103260000320BDE8F0872068012F0AD0806925EA95
:1032700000000004000C06D000214145E0D00020F1
:10328000EFE74069F3E70121F7E700002DE9F04798
:103290009A4691460D46044600264FF02008C1F399
:1032A00007472AE020684069C043400512D42068DF
:1032B000016841F40071016021686FF48060486129
:1032C00004202064266384F83D8084F83C6001205B
:1032D000BDE8F087B9F1FF3F0FD0B9F1000F05D07D
:1032E000FEF7B8F9A0EB0A01494506D944F8306F5A
:1032F00084F80D8026730320EAE72068012F07D0A9
:10330000D0F8180025EA00000004000CE0D0C9E75E
:103310004069F7E72DE9F041002590460E46044646
:10332000202721E04069C043C0060CD421686FF01B
:10333000100048612564256384F83D7084F83C5092
:103340000120BDE8F0812EB1FEF784F9A0EB080062
:10335000B04209D954F8400F40F0200044F8040965
:10336000677025700320ECE720684169C94349066E
:10337000D8D40020E5E770B516460D4604461AE09D
:103380002046FFF74FFE08B1012070BD681C12D027
:1033900025B1FEF75FF9801BA8420CD954F8400F05
:1033A00040F0200044F810090020206020216173C3
:1033B0002073032070BD20684069C0430006DFD43D
:1033C000002070BD10B50348FEF78AF9BDE8104033
:1033D00000F002B82C01002010B50E48FEF799F954
:1033E000002815D10B480C494FF4804201600B496D
:1033F000416000218160C0E9031241618161C161C6
:10340000016200F00DF8BDE810400248FEF784B9F3
:1034100010BD00002C010020005C0040A0860100CF
:1034200000B50068284987B088424AD12748002162
:10343000026842F004020260026802F0040205928F
:10344000026842F001020260006800F0010005908D
:103450004FF4807000901220CDE90101022003900A
:103460000420049069461A48FEF704F84FF40070EF
:10347000009069461748FDF7FDFF144810300168B9
:1034800041F400010160006800F4000005900F485D
:103490001038016841F400010160016821F4000165
:1034A000016000220F214820FEF7B6FD4820FEF7FC
:1034B000A7FD00220F214920FEF7AEFD4920FEF7AF
:1034C0009FFD07B000BD0000005C004030380240A6
:1034D0000000024000080240FDF780BE104800B521
:1034E000026887B0002142F001020260006800F02B
:1034F000010005904FF4004000900120CDE9020149
:103500000848019069460848FDF7B4FF00220F21E2
:103510002820FEF781FD2820FEF772FD07B000BDD0
:10352000303802400000211000000240FFF754BF75
:103530001FB50A4601460020084C8DF80C000123F7
:10354000A46803A88DE819000548FEF769F908B1D9
:10355000FFF738FF9DF80C0004B010BD00000020FC
:103560002C0100203EB514460A46014607488068F3
:103570000094CDE9013001230548FEF751F90028F8
:1035800002D0FFF71FFF01203EBD00000000002019
:103590002C0100201FB51346084C0A468DF80C304C
:1035A0000146A468012303A88DE819000448FEF72A
:1035B00035FA002801D0FFF705FF1FBD00000020ED
:1035C0002C010020FDF70ABE2DE9F041244886B009
:1035D0000178002940D1234C012505702068002680
:1035E00040F0080020602068022700F008000590E5
:1035F00068038DE8E100DFF8708069464046FDF71A
:1036000039FF206840F0080020602068694600F01B
:1036100008000590A0148DE8E1004046FDF72AFF60
:10362000206840F0040020602068104C00F0040086
:10363000059004208DE8E10069462046FDF71AFF59
:10364000002204212046FDF7FFFF0122042120462D
:10365000FDF7FAFF00F0DCFB06B0BDE8F0810000EA
:103660000000002030380240000C024000080240F8
:103670002DE9F843154D0C46074600220421284643
:10368000FDF7E2FFDFF848804FF400560022314694
:103690004046FDF7D9FF384600F008FC0D482246A9
:1036A0006946C3680C48FFF789F908B100F0A6FB2A
:1036B000012231464046009CFDF7C6FF012204214D
:1036C0002846FDF7C1FF2046BDE8F8830008024008
:1036D000000C0240000000208001002070B505466B
:1036E000012251030948FDF7AFFF094C00220421D4
:1036F0002046FDF7A9FF284600F0D8FB2046BDE88C
:10370000704001220421FDF79FBF0000000C024021
:103710000008024070B5054600224FF400510948E8
:10372000FDF792FF084C002204212046FDF78CFF94
:10373000284600F0BBFB2046BDE870400122042172
:10374000FDF782BF000C024000080240F0B503689C
:103750008C88DD68C5F30B452C442504882404EBD4
:10376000C2141E5906F470461E5103680F68DE68C5
:10377000C6F30B46761C3E442E431E5104688B89CB
:10378000E568C5F30A052B441D048C2303EBC21323
:10379000E65806F47046E65004688F68E668C6F39B
:1037A0000A06761C3E442E43E6509423046803EB3D
:1037B000C213E55825F00705E55005680C69EC5083
:1037C00091F831300C7E1F0226069C24056804EB1C
:1037D000C21491F8323055F804C04FF0000C45F88F
:1037E00004C091F8305046EA03433D431D4303684B
:1037F0001D519823046803EBC213E55825F0FF051B
:10380000E55005684C69EC50A023046803EBC21333
:10381000E55840F20776B543E550D1E907452C431A
:103820000568EC50AC23046803EBC213E55844F878
:1038300003C005684C6AEC500B698BB3012B32D086
:10384000042B32D0022B30D0032B2ED0072B2CD0C0
:103850000123B024056804EBC2142E5906F0E026BB
:103860002E51D1E90065AD1B0E8D5D435E43ED1C0D
:1038700045EA064305682B51B423046803EBC213E1
:10388000E5586FF30A05E5500468C96AE15000681D
:10389000842101EBC211425842F001024250F0BDB6
:1038A000FFE70423D5E70323D3E70223D1E7000092
:1038B0000F4810B50D49016000210222C0E9011234
:1038C000C160C0E90A1201634163FDF70FFB08B153
:1038D000FDF7F5F901210648FDF7B4FA002803D0F9
:1038E000BDE81040FDF7EBB910BD000000B002408C
:1038F0002804002000B5134887B011490160012158
:103900000022C0E901120421C16010214023C0E956
:1039100004138023C0E9063202624262826200918F
:103920000191029103910491059106916946FEF778
:1039300055FF002801D0FDF7C2F907B000BD000017
:10394000400100A06804002030B591B0002501219D
:103950000FA80F9500F0BAFD174C0121E06010A8E8
:10396000109500F0B3FD2061142214496846FCF75D
:10397000C8FC0021684600F019FE1049206014229E
:10398000143105A8FCF7BDFC002105A800F00EFECF
:103990000A496060142228310AA8FCF7B2FC002111
:1039A0000AA800F003FEA060606800F031FEA06885
:1039B00000F02EFE11B030BDA8000020B077000846
:1039C0002DE9F04F87B014216846FCF7B3FC6E4830
:1039D0000024016841F004010160016801F0040164
:1039E0000591016841F020010160016801F02001AA
:1039F0000591016841F080010160016801F08001DA
:103A00000591016841F001010160016801F00101C7
:103A10000591016841F002010160016801F00201B5
:103A20000591016841F040010160016801F0400129
:103A30000591016841F010010160016801F0100179
:103A40000591016841F0080101600068DFF83C91D0
:103A500000F008000590002216214846FDF7F4FD0D
:103A6000DFF82CA1002280215046FDF7EDFDDFF8A4
:103A700024B14FF44057002239465846FDF7E4FD83
:103A80004FF4C048002241464348FDF7DDFD1620B3
:103A900000900125CDE90154694648460394FDF79D
:103AA000E9FC3E480095CDE9010469465046FDF722
:103AB000E1FC3B4E48F20600CDE90006694602945F
:103AC0005046FDF7D7FC80200090CDE901546946AF
:103AD00050460394FDF7CEFC2020CDE90006694650
:103AE00002944846FDF7C6FC0420CDE90004DFF847
:103AF000B490694648460294FDF7BCFC4FF4504030
:103B000000900226CDE901640C20CDE9034069460E
:103B10004846FDF7AFFC6803CDE900046946484616
:103B20000294FDF7A7FCE802CDE900046946584677
:103B30000294FDF79FFC0097CDE901546946584671
:103B40000394FDF797FCF810CDE900060320CDE9BA
:103B500002400720049069465046FDF78BFCCDF8E3
:103B60000080CDE9015469460B480394FDF782FCBF
:103B7000002205210620FEF74FFA0620FEF740FA44
:103B800007B0BDE8F08F0000303802400008024066
:103B900000000240000C024000180240000011101A
:103BA0000000121000040240144810B512490160D0
:103BB0001349416000214FF480428160C0E9031243
:103BC00041618161C1610162FDF7A6FD08B1FDF7A8
:103BD00076F800210948FDF743FD08B1FDF76FF8BD
:103BE00000210648FDF75DFD002803D0BDE8104028
:103BF000FDF765B810BD0000005C00409C0400208B
:103C0000A086010070B59AB034216846FCF792FB9B
:103C100034210DA8FCF78EFB2F482E490024C0E963
:103C2000001484600721C460C0E90441032181615C
:103C30000E210525C0E907154FF4A7714162F52152
:103C400081624FF4AA71C162F721016380F83440A8
:103C500080F8354080F83640FEF782F808B1FDF76D
:103C60002EF8019402944FF48066CDE90646039441
:103C700004940094CDE908548DF8304005948DF8F3
:103C800031400A940B948DF8324000226946124864
:103C9000FEF724F808B1FDF712F80D940E940F9476
:103CA000109411941294CDE91346CDE915548DF872
:103CB00064408DF86540179418948DF86640012291
:103CC0000DA90548FEF70AF8002801D0FCF7F7FF18
:103CD0001AB070BD00680140F00400200F4810B514
:103CE0000D4901604FF48271416000218160C16023
:103CF0004FF400720161C0E90512C16101624162C5
:103D000081620A21C162FEF7CFFD002803D0BDE821
:103D10001040FCF7D4BF10BD0050014098050020B2
:103D2000FEE770470907090E002806DA00F00F00C9
:103D300000F1E02080F8141D704700F1E02080F8C9
:103D40000014704738B50B460092044600228021CB
:103D500000F008F8002804D0606D40F02000606595
:103D6000032038BD2DE9F0411D4617460E46044696
:103D7000DDF8188035E0681C33D02DB1FDF76AFC02
:103D8000A0EB0800A8422CD32068416821F0E00194
:103D900041606068B0F5827F0BD1A068B0F5004F3C
:103DA00002D0B0F5806F04D12068016821F0400195
:103DB0000160A06AB0F5005F0AD1206801684DF685
:103DC000FF72114001602068016841F400510160F8
:103DD000012084F85100002084F850000320BDE841
:103DE000F0812068806836EA000004D00020B842E4
:103DF000C1D10020F3E70120F9E7000010B5034826
:103E0000FEF738FDBDE8104000F002B88001002048
:103E100000B587B02148FEF744FD00283BD11F487C
:103E20001F4901601821C1610021816041610722A1
:103E30000161C0E90A12C1604FF40072016282613F
:103E400041624FF4827141601648016841F480116B
:103E50000160006800F48010059012481438016871
:103E600041F0200101600068694600F020000590E3
:103E70004FF46070009002200190029001200390A6
:103E8000052004900848FDF7F5FA07B003485DF8EF
:103E900004EBFEF709BD07B000BD00008001002063
:103EA00000500140443802400014024001B5064869
:103EB00001226946C3680548FEF728FE002801D0A4
:103EC000FFF79CFF08BD00000000002080010020DB
:103ED000012000F0EFFAFBE70D4F0E4C4FF0FF38DA
:103EE0004FF400564146E06800F02CFB0025FA2014
:103EF000FDF774F931463846FDF7A2FB6D1C042D21
:103F0000F5DBA06800F06AFB206900F0F3FAE9E74E
:103F100000180240A8000020DFF830800C4F4FF05E
:103F2000FF394FF4FA754FF480464946D8F810002F
:103F300000F008FB00242846FDF750F931463846CA
:103F4000FDF77EFB641C042CF5DBEEE7A8000020E7
:103F50000018024010B5502080F31188BFF34F8F36
:103F6000BFF36F8F01F038FD18B104494FF0805056
:103F70000860002080F3118810BD000004ED00E00F
:103F800030B59FB030216846FCF7D4F9142118A849
:103F9000FCF7D0F930210CA8FCF7CCF91D4800251E
:103FA000016841F080510160006800F080501D9070
:103FB0001948016841F4404101600068022400F49E
:103FC00040401D9001200090000401908001CDE947
:103FD000064004200890A820CDE9090407200B9092
:103FE0006846FEF76DFA18A90F2081E831004FF4FA
:103FF000A0501B901C90052118A8FEF759F9082025
:104000000C90D8201595109012940CA8FEF736F855
:104010001FB030BD403802400070004010480168B9
:1040200041F4700101600F48016841F00101016035
:104030000C4A00210832116002680B4B1A400260E2
:10404000031D0A4A1A60026822F4802202600548B1
:104050000C30016002495806803908607047000042
:1040600088ED00E000380240FFFFF6FE103000242B
:104070000148FEF716BF0000F0050020F0B5026809
:10408000234B244D244E254F254C4FF0804C984215
:1040900009D0604507D0A84205D0B04203D0B8424D
:1040A00001D0A04204D122F0700E4A6842EA0E020A
:1040B00098421BD0604519D0A84217D0B04215D005
:1040C000B84213D0A04211D0164DA8420ED0164DC2
:1040D000A8420BD0154DA84208D0154DA84205D0D6
:1040E000144DA84202D0144DA84203D122F44075C9
:1040F000CA682A4302608A68C2620A688262984279
:1041000001D0A04201D10969016301214161F0BDE3
:10411000000001400004004000080040000C004086
:1041200000040140004001400044014000480140BB
:1041300000180040001C004000200040FEE702E0A4
:1041400008C8121F08C1002AFAD170477047002022
:1041500001E001C1121F002AFBD170472820FFF7A0
:10416000D9BA2920FFF7D6BA4FF4A0707047F020D3
:10417000704710B5FFF728FACA20FFF7CBFAC32023
:10418000FFF7ACFA0820FFF7A9FA5020FFF7A6FACC
:10419000CF20FFF7BFFA0020FFF7A0FAC120FFF7FA
:1041A0009DFA3020FFF79AFAED20FFF7B3FA64206A
:1041B000FFF794FA0320FFF791FA1220FFF78EFA27
:1041C0008120FFF78BFAE820FFF7A4FA8520FFF79C
:1041D00085FA0020FFF782FA7820FFF77FFACB20DC
:1041E000FFF798FA3920FFF779FA2C20FFF776FAD3
:1041F0000020FFF773FA3420FFF770FA0220FFF770
:104200006DFAF720FFF786FA2020FFF767FAEA2019
:10421000FFF780FA0020FFF761FA0020FFF75EFA4F
:10422000B120FFF777FA0020FFF758FA1B20FFF7BD
:1042300055FAB620FFF76EFA0A20FFF74FFAA220D0
:10424000FFF74CFAC020FFF765FA1020FFF746FA97
:10425000C120FFF75FFA1020FFF740FAC520FFF7F3
:1042600059FA4520FFF73AFA1520FFF737FAC72029
:10427000FFF750FA9020FFF731FA3620FFF74AFA9D
:10428000C820FFF72BFAF220FFF744FA0020FFF7CF
:1042900025FAB020FFF73EFAC220FFF71FFAB6203A
:1042A000FFF738FA0A20FFF719FAA720FFF716FAE6
:1042B0002720FFF713FA0420FFF710FA2A20FFF750
:1042C00029FA0020FFF70AFA0020FFF707FA00207A
:1042D000FFF704FAEF20FFF701FA2B20FFF71AFA95
:1042E0000020FFF7FBF90020FFF7F8F90120FFF7A6
:1042F000F5F93F20FFF7F2F9F620FFF70BFA01205E
:10430000FFF7ECF90020FFF7E9F90620FFF7E6F9DF
:104310002C20FFF7FFF9C820FFF754F92620FFF7FC
:10432000F9F90120FFF7DAF9E020FFF7F3F90F20A0
:10433000FFF7D4F92920FFF7D1F92420FFF7CEF9B0
:104340000C20FFF7CBF90E20FFF7C8F90920FFF783
:10435000C5F94E20FFF7C2F97820FFF7BFF93C20DE
:10436000FFF7BCF90920FFF7B9F91320FFF7B6F9F9
:104370000520FFF7B3F91720FFF7B0F91120FFF779
:10438000ADF90020FFF7AAF9E120FFF7C3F90020FB
:10439000FFF7A4F91620FFF7A1F91B20FFF79EF9FC
:1043A0000420FFF79BF91120FFF798F90720FFF78A
:1043B00095F93120FFF792F93320FFF78FF942206A
:1043C000FFF78CF90520FFF789F90C20FFF786F934
:1043D0000A20FFF783F92820FFF780F92F20FFF745
:1043E0007DF90F20FFF77AF91120FFF793F9C82024
:1043F000FFF7E8F82920FFF78DF9BDE810402C20E1
:10440000FFF788B910B5FFF7DFF80321D320FFF7D6
:104410002FF980B210BDEFF30580002800D00120F5
:1044200070470000FDF706FCFFF7AAFDFFF7C8FA8A
:10443000FFF73EFAFFF7B8FBFFF7E4FBFFF74EFC90
:10444000FFF758FAFCF7C4F84FF05044214600201B
:10445000FCF708F921460120FCF704F90120FCF7DC
:10446000D7F9FCF707F8A017FBF7CCFF0948FCF7D2
:10447000E3F909A10120FCF769F84FF4A071F020DD
:10448000FCF718FBFFF760FA00F01BF86420FCF75C
:10449000A5FEFBE70000FFFF5445535445204C495F
:1044A0004E4841203100000001460020842900D000
:1044B000C81C704710B500B9012000F0ABFD00200A
:1044C00010BD10B500F07CFE002010BD10B5012914
:1044D00001D0002010BD03220021012000F0A2FF26
:1044E000040004D000231A46194601F0B9F820460A
:1044F00010BD000038B5002405460094FFF78BFF7F
:1045000090B16946284601F05BF9012801D0FF20EF
:1045100038BD009888B10A494FF080500860BFF359
:104520004F8FBFF36F8F08E000231A4619462846C5
:1045300001F096F8012800D0FF24204638BD000085
:1045400004ED00E038B505004FF0000000900FD0FA
:104550000024481C0ED001B10C46FFF75CFFB8B137
:104560006A460021284601F079F9012818D104E0B3
:10457000802038BD4FF0FF34EFE7009890B10A4932
:104580004FF080500860BFF34F8FBFF36F8F09E08B
:10459000002322461946284600F068FF012801D072
:1045A000FF2038BD002038BD04ED00E03EB50446D4
:1045B0000D46B0F90800FFF777FF02A9CDE9000129
:1045C000208A2B4682B2D4E9001001F0CBF90128F1
:1045D00001D000203EBD02983EBD000010B504464B
:1045E000FFF719FF002820460BD001F041FB0128FE
:1045F00009D1064900070860BFF34F8FBFF36F8FE3
:1046000001E000F08DFD002010BD000004ED00E091
:1046100010B500F009FE002010BD00002DE9F041AA
:10462000184C0F460546E6682068001D00F011FC96
:1046300038B9206890F82C10012088402169814306
:104640002161681C07D137B12168BDE8F0410E48EF
:10465000091D00F036BC20683544B542456021682C
:1046600005D2A06BBDE8F041091D00F012BC606BE3
:10467000091D00F00EFCA06A854200D2A562BDE8CB
:10468000F0810000CC000020080700202DE9F04157
:10469000054600F023FC2E4CA068401CA06020685A
:1046A0002C4F10B1606940B32DE02560A06801284F
:1046B00029D1002606EB860007EB800000F0DBFB2B
:1046C000761C072EF6D323488C3000F0D4FB21480B
:1046D000A03000F0D0FB1F48B43000F0CCFB1D48E8
:1046E000C83000F0C8FB1B48DC3000F0C4FB1948A0
:1046F0008C3060631430A06305E02068E96AC06A0A
:10470000884200D82560606A401C6062E96A012026
:10471000226988401043206101EB810007EB800093
:10472000291D00F0CEFB00F0F9FB606900280CD0D9
:104730002068E96AC06A884207D207494FF0805072
:104740000860BFF34F8FBFF36F8FBDE8F0810000AB
:10475000CC0000202C06002004ED00E070B5114EC6
:10476000114C17E000F0B8FD3068B8B101F01EFA46
:1047700000F0B4FBF068C568281D00F06AFBA06873
:10478000401EA0606068401E606000F0C7FB2846C5
:1047900000F055F860680028E4D170BD01F006FA19
:1047A000F8E70000F4060020CC00002030B4026CD2
:1047B0000B46002A0BD0C1681144C1604468A14275
:1047C00001D30168C16030BC1846FBF79ABD30BC0C
:1047D00070472DE9F041856B174604460026026CB0
:1047E00082B1C7B1E068FBF78CFDE168206C091A63
:1047F000E1602268914202D26168081AE060022FEB
:1048000016D017E02068A8B9606801F049F906469B
:10481000002060600EE0A068FBF773FD216CA068CB
:104820000844A0606168884204D32068A06001E069
:1048300005B16D1E6D1CA5633046BDE8F08110B555
:104840000446006B00F07EFB2046BDE8104000F0FF
:1048500079BB000010484FF47051420706D0C01DCC
:104860000D4920F00700411AC1F570510B4A002391
:104870000144C2E900030839103A21F00701116030
:104880004B600B600B1AC0E9001393604FF00040BF
:104890005360D060704700001C0700201801002002
:1048A000074C4FF08056074DFFF758FF206801284E
:1048B000FAD92E60BFF34F8FBFF36F8FF4E700007C
:1048C0002C06002004ED00E02DE9F0479A46DDE9D2
:1048D000098481466FF00303206B03EB82021044CE
:1048E000089D20F00706700707D0502080F311883C
:1048F000BFF34F8FBFF36F8FFEE723180A5C83F877
:1049000034200A5C12B1401C1028F6D3002784F82A
:104910004370072D00D30625E562C4E91157201D19
:1049200000F0B4FA04F1180000F0B0FA2461C5F107
:1049300007006462A061E76484F8507052464946FB
:10494000304600F029F92060B8F1000F01D0C8F816
:104950000040BDE8F087000030B5114900E0114685
:104960000A688242FBD34B685C18844203D14068DA
:1049700018444860084643681C18944209D1084C02
:10498000103C2468A24209D052681A4442600A6866
:1049900012680260814200D0086030BD0460F9E70F
:1049A0001801002010B5044600F098FAA06B28B159
:1049B0005FF0000400F0B2FA204610BD0124F9E7D0
:1049C0000648416B096829B1416BC968C9684968E3
:1049D000816270474FF0FF31FAE70000CC00002001
:1049E00008484068401C4FF0500080F3118804D004
:1049F000BFF34F8FBFF36F8FFEE7BFF34F8FBFF350
:104A00006F8FFEE720010020002150B10A4B426960
:104A10009A420FD1806AA3F1280290420AD040B195
:104A200008E0502080F31188BFF34F8FBFF36F8FE2
:104A3000FEE7012108467047080700202DE9F041F4
:104A4000044600F04BFA94F9455004F1240609E0BD
:104A5000606A48B1304601F06FF808B100F000FB21
:104A60006D1E6DB2002DF3DC4FF0FF3684F845600B
:104A700000F054FA00F032FA94F9445004F11007AF
:104A800009E0206948B1384601F056F808B100F055
:104A9000E7FA6D1E6DB2002DF3DC84F84460BDE8CA
:104AA000F04100F03BBA00002DE9F0410546002737
:104AB00000F012FC314E306808B9FFF7CBFEF06809
:104AC00005424BD1C5B3083568070ED005F0070085
:104AD000C0F108000544680707D0502080F3118812
:104AE000BFF34F8FBFF36F8FFEE72DB37068854222
:104AF00034D82248103001460C6801E020460C46AC
:104B00006168A94202D221680029F7D131688C423C
:104B100024D007682168016060680837411B1029AC
:104B20000FD96019420708D0502080F31188BFF3D5
:104B30004F8FBFF36F8FFEE710E041606560FFF7B6
:104B40000BFF61687068401A7060B268904200D2D2
:104B5000B060F06801430020C4E9000101F026F8CC
:104B6000780707D0502080F31188BFF34F8FBFF331
:104B70006F8FFEE73846BDE8F08100000801002095
:104B80000449086818B10868826C521C826408687D
:104B900070470000CC00002010B5031F4FF0807458
:104BA0001C601B1F21F001011960191F044B0B60D1
:104BB00014390A60091F6FF0020244380A6010BD00
:104BC000E14900080A46C0B20B21FEF7E3BC10B56C
:104BD0000446C0B20921FEF7ABFC20F00102E0B2AE
:104BE000BDE810400921FEF7D5BC70B50D4604465E
:104BF000C0B20A21FEF79CFC20EA0502E0B2BDE843
:104C000070400A21FEF7C6BC10B50446C0B20921A7
:104C1000FEF78EFC40F00102E0B2BDE81040092131
:104C2000FEF7B8BC70B50D460446C0B20A21FEF7C7
:104C30007FFC40EA0502E0B2BDE870400A21FEF7C1
:104C4000A9BC00000146054A0020135C8B4204D039
:104C5000401CC0B20228F8D3FF2070479C000020FF
:104C600070B50D460446C0B21721FEF761FC20EA7C
:104C70000502E0B2BDE870401721FEF78BBC0000D2
:104C800010B50446FFF7DEFFFF280DD10020FFF727
:104C9000D9FF022808D205490C54FEF747FC2046EC
:104CA000BDE8104000F014B810BD00009C000020CA
:104CB00070B50446FEF73AFCE0B20121FEF738FC7D
:104CC0000546E0B20021FEF733FC45EA002070BD46
:104CD00010B50446C0B202220321FEF75BFC0A2095
:104CE000FEF7FAFBE0B200220321FEF753FCBDE819
:104CF00010400220FEF7F0BB1F21FFF763BF70B525
:104D000004460025C0B24021FEF712FCC009E0B203
:104D100005D04C21FEF70CFC50B1012508E0012222
:104D20004B21FEF737FCE0B200224B21FEF732FCAC
:104D3000284670BD10B50446FFF749FF2046BDE880
:104D400010401F21FFF751BF10B50446FEF7C6FB08
:104D50001F212046FFF766FF2046BDE81040FFF701
:104D600053BFF8B515460E460446C0B204236A4642
:104D7000D721FEF7F7FB0098012203BA9DF8030044
:104D80004B210343180D3080C3F30B202880E0B281
:104D9000FEF700FCE0B200224B21FEF7FBFBF8BD62
:104DA00010B5C0B20B21FEF7C3FB00F01F0010BD11
:104DB00070B50446C0B20421FEF7BAFB20F004052A
:104DC000E0B22A460421FEF7E5FBF0212046FFF77A
:104DD00047FF25F00302E0B20421FEF7DBFBE0B25F
:104DE00049222021FEF7D6FB0220FEF775FBE0B238
:104DF00001222121FEF7CEFBE0B29A224121FEF7EB
:104E0000C9FBE0B201224A21FEF7C4FBE0B2012255
:104E10004B21FEF7BFFBE0B200224B21FEF7BAFBAD
:104E2000E0B201225621FEF7B5FBE0B20122582183
:104E3000FEF7B0FBE0B201224021FEF7ABFBE0B28F
:104E4000FF220B21FEF7A6FBBDE870400220FEF713
:104E500043BBD0E9013201699A60D0E901235A606D
:104E60004A68824201D182684A6000220261086871
:104E7000401E0860704700F108014FF0FF32C0E9A2
:104E80000112C160016100210160704700210161D0
:104E9000704730B50B685A1C02D000F1080202E0DE
:104EA000026904E02246546825689D42FAD9536895
:104EB0004B6099608A60516008610168491C01601B
:104EC00030BD42684A6093688B6093685960916016
:104ED00008610168491C016070470000502080F3A0
:104EE0001188BFF34F8FBFF36F8F0A494868401C8A
:104EF000486001280CD10848006810F0FF0F07D067
:104F0000502080F31188BFF34F8FBFF36F8FFEE700
:104F1000704700002001002004ED00E008494868C7
:104F200028B1401E486001D180F31188704750209D
:104F300080F31188BFF34F8FBFF36F8FFEE7000040
:104F40002001002070B5002827D0144DA0F10804DE
:104F50006168E868014207D1502080F31188BFF3EF
:104F60004F8FBFF36F8FFEE722683AB1502080F376
:104F70001188BFF34F8FBFF36F8FFEE781436160EE
:104F800000F0AAF960686968084468602046FFF785
:104F9000E3FCBDE8704000F009BE70BD08010020D0
:104FA00006484FF47A710068B0FBF1F14FF0E02051
:104FB000491E41610721016170470000C8000020BF
:104FC00010B5FBF757F9114910280ED300F1E02076
:104FD00090F8F0030A78904207D2502080F31188AD
:104FE000BFF34F8FBFF36F8FFEE7094800688968F2
:104FF00000F4E060884207D9502080F31188BFF3A5
:105000004F8FBFF36F8FFEE710BD0000200100201F
:105010000CED00E010B5020014D00F48006B38B161
:10502000502080F31188BFF34F8FBFF36F8FFEE7DF
:1050300000F052F900211046FFF7F0FA00F0B6FD3B
:10504000002807D105494FF080500860BFF34F8F0B
:10505000BFF36F8F10BD0000CC00002004ED00E016
:1050600001490120C8617047CC00002010B50C46F2
:1050700050B1094909681831FFF70BFF2046BDE818
:1050800010400121FFF7CABA502080F31188BFF306
:105090004F8FBFF36F8FFEE7CC00002070B5040088
:1050A00039D01D4DE06A2968C96A884233D2A069A7
:1050B000002804DB2868C06AC0F10700A061E16A2B
:1050C000164E01EB8101606906EB810188421FD118
:1050D000201DFFF7BEFE012150B9E06A00EB8002FF
:1050E00056F8222022B92A6901FA00F082432A6187
:1050F0002868C06AE0622A6981401143296100EB97
:10510000800006EB8000211DBDE87040FFF7D9BE8E
:105110002868C06AE06270BDCC0000202C06002028
:1051200070B504002BD01A4D286884422FD0FFF7A9
:10513000D5FE2046FFF768FCE8B1201DFFF789FE89
:10514000E06A01212A69814011432961114900EB7C
:10515000800001EB8000211DFFF7B3FEE06A2968A3
:10516000C96A884207D30C494FF080500860BFF3EA
:105170004F8FBFF36F8FBDE87040FFF7CFBE502059
:1051800080F31188BFF34F8FBFF36F8FFEE770BDC1
:10519000CC0000202C06002004ED00E028B10749D7
:1051A0000A6A0260C96841607047502080F3118824
:1051B000BFF34F8FBFF36F8FFEE70000CC000020DE
:1051C0001CB515480024CDE900402346802213A1D8
:1051D000144800F0C7FB012809D0401C1AD1502008
:1051E00080F31188BFF34F8FBFF36F8FFEE750201E
:1051F00080F31188BFF34F8FBFF36F8F06484FF0D6
:10520000FF312C38816201214161C460BDE81C403E
:1052100000F098B81CBD0000F800002049444C453F
:1052200000000000A148000870B50446FFF756FED4
:10523000264D04B92C68201DFFF70BFE58B9E06A13
:10524000234A00EB800152F8211021B9012181404D
:10525000286988432861A06A18B104F11800FFF793
:10526000F8FD1B48211DDC30FFF72BFEFFF756FE33
:10527000686928B1FFF732FEFFF7A2FBFFF74EFE89
:105280002868844213D1686990B1286B38B15020E6
:1052900080F31188BFF34F8FBFF36F8FFEE70D4987
:1052A0004FF080500860BFF34F8FBFF36F8F70BD1A
:1052B0000748A968DC300068884202D100202860D5
:1052C00070BDBDE8704000F00FB80000CC000020B9
:1052D0002C06002004ED00E00248016B491C01632C
:1052E00070470000CC0000201448016B11B101216F
:1052F000C16170470021C1610169B1FA81F1C1F159
:105300001F0101EB81020E4951F822306BB101EB14
:10531000820101F108034A6852684A609A4201D149
:1053200052684A60D16801607047502080F311884C
:10533000BFF34F8FBFF36F8FFEE70000CC0000205C
:105340002C0600201CB532480168324A914207D130
:10535000502080F31188BFF34F8FBFF36F8FFEE7AC
:1053600000682C49491E884207D1502080F31188DB
:10537000BFF34F8FBFF36F8FFEE727490878019087
:10538000FF20087008788DF800009DF800009DF857
:10539000002000F0F000904207D0502080F31188E8
:1053A000BFF34F8FBFF36F8FFEE79DF800001B4ADE
:1053B00000F0500010700720906005E09DF800306C
:1053C0005B008DF80030401E9DF800301B06F5D4C0
:1053D000000200F4E0609060019808700C482030F2
:1053E000016841F470010160016841F070410160A1
:1053F000FFF7D6FD00205060FAF702FF0848016869
:1054000041F040410160FAF7EBFE00201CBD0000B6
:1054100000ED00E071C20F4100E400E02001002037
:1054200034EF00E070B50E46050013D0D6B105FB91
:1054300006F04830FFF738FB040009D004F14801BA
:1054400020468EB10160C0E90F56012100F0C4F87A
:10545000204670BD502080F31188BFF34F8FBFF3FB
:105460006F8FFEE70020E4E70060ECE72DE9FF4FD7
:10547000002683B09B468A46040003D0BAF1000F91
:1054800008D011E0502080F31188BFF34F8FBFF395
:105490006F8FFEE7206C38B1502080F31188BFF386
:1054A0004F8FBFF36F8FFEE700F088FADFF824819B
:1054B0004FF000094FF0805748B9059838B1502097
:1054C00080F31188BFF34F8FBFF36F8FFEE7FFF7B5
:1054D00005FDA56B45B351462046E668FFF766F922
:1054E000BBF1000F13D0E660606A50B104F12400F4
:1054F00000F022FB28B1C8F80070BFF34F8FBFF354
:105500006F8FFFF70BFD012007B0BDE8F08F6D1E18
:10551000A563206810B9FFF733FB6060206900289D
:10552000EFD004F11000E3E7059808B11EB106E0E2
:10553000FFF7F4FC27E06846FFF730FE0126FFF78F
:10554000EDFCFFF7C9FEFFF7C9FC94F94400401CCD
:1055500001D184F8449094F94500401C01D184F8AD
:105560004590FFF7DBFC05A9684600F0C5F9002867
:1055700020460AD0FFF762FA00F018FB2046FFF73A
:1055800011FA0028A3D00020BEE7FFF70BFAD8B12C
:10559000206830B9FFF7A2FC6068FFF77FFDFFF7D6
:1055A000BDFC04F124000599FFF760FD2046FFF7DC
:1055B00045FA00F0FBFA002889D1C8F80070BFF363
:1055C0004F8FBFF36F8F82E72046FFF737FA00F067
:1055D000EDFA7CE704ED00E070B50D46040025D03F
:1055E000FFF77CFCD4E90F20216802FB0011616009
:1055F0000021A1632168A1600A46D4E90F01401E81
:1056000000FB0121E16021464FF0FF3001F8440F1B
:10561000487004F110008DB1FFF72DFC04F1240057
:10562000FFF729FCFFF77AFC012070BD502080F3C2
:105630001188BFF34F8FBFF36F8FFEE721690029F9
:10564000F0D000F079FA0028ECD004494FF08050F7
:105650000860BFF34F8FBFF36F8FE3E704ED00E007
:105660002DE9FF4782B01D468A464FF0000804002E
:1056700003D0BAF1000F08D011E0502080F3118858
:10568000BFF34F8FBFF36F8FFEE7206C38B1502010
:1056900080F31188BFF34F8FBFF36F8FFEE7022DAA
:1056A0000AD1E06B012807D0502080F31188BFF3A6
:1056B0004F8FBFF36F8FFEE700F080F93F4F4FF041
:1056C00000094FF0805648B9049838B1502080F353
:1056D0001188BFF34F8FBFF36F8FFEE7FFF7FEFB1D
:1056E000A06BE16B884207D3022D05D00498D0B19E
:1056F000B8F1000F1AD01EE02A4651462046FFF7A7
:1057000068F8616A19B104F1240000F015FA20B1BB
:105710003E60BFF34F8FBFF36F8FFFF7FFFB01209A
:1057200006B0BDE8F087FFF7F9FB22E06846FFF717
:1057300035FD4FF00108FFF7F1FBFFF7CDFDFFF757
:10574000CDFB94F94400401C01D184F8449094F9B5
:105750004500401C01D184F84590FFF7DFFB04A908
:10576000684600F0C9F830B12046FFF767F900F04D
:105770001DFA0020D4E7FFF7B1FBA06BE16B884274
:1057800013D1FFF7CBFB04F110000499FFF76EFC77
:105790002046FFF753F900F009FA00289ED13E6039
:1057A000BFF34F8FBFF36F8F98E7FFF7B7FB20462C
:1057B000FFF744F900F0FAF990E7000004ED00E08B
:1057C00070B50E46040009D0206C78B1502080F3EB
:1057D0001188BFF34F8FBFF36F8FFEE7502080F328
:1057E0001188BFF34F8FBFF36F8FFEE7206848B972
:1057F000606838B1502080F31188BFF34F8FBFF33A
:105800006F8FFEE7FFF7DCFB5020EFF3118580F38D
:105810001188BFF34F8FBFF36F8FA16BE06B88428E
:1058200018D994F94500491CA163411C04D0401CBF
:1058300084F8450001200EE0606A0028FAD004F1E7
:10584000240000F079F90028F4D0002EF2D00120D5
:105850003060EFE7002085F3118870BD2DE9F04737
:1058600090468946040003D0B9F1000F08D011E03A
:10587000502080F31188BFF34F8FBFF36F8FFEE787
:10588000206C38B1502080F31188BFF34F8FBFF3E5
:105890006F8FFEE7FFF794FB5020EFF3118680F344
:1058A0001188BFF34F8FBFF36F8FA76BF7B194F9D8
:1058B000445049462046FEF779FF7F1EA763681CC7
:1058C00004D06D1C84F84450012010E020690028A9
:1058D000FAD004F1100000F02FF90028F4D0B8F14C
:1058E000000FF1D00121C8F80010EDE7002086F389
:1058F0001188BDE8F087000070B50D46040019D08E
:1059000005B3FFF7EBFA164AD1682868431C0FD09D
:105910002368126A934202D062688A421AD9626886
:10592000891A814216D2401A28602046FFF736FCB9
:10593000002410E0502080F31188BFF34F8FBFF395
:105940006F8FFEE7502080F31188BFF34F8FBFF3B6
:105950006F8FFEE70124FFF7E1FA204670BD0000DB
:10596000CC0000202DE9FF5F8346DDE90E879946D4
:1059700016468A469000FFF797F805001AD0542083
:10598000FFF792F8040012D025630021CDE902410F
:10599000CDE900874B46324651465846FEF794FF04
:1059A0002046FEF773FE012004B0BDE8F09F2846B4
:1059B000FFF7C8FA4FF0FF30F6E7000005484169ED
:1059C00019B1006B18B10020704701207047022008
:1059D00070470000CC0000202DE9F0412E4C00273C
:1059E000206B40B1A069401CA061E06900B10127B3
:1059F0003846BDE8F081E668761CE66013D1606B3E
:105A0000006838B1502080F31188BFF34F8FBFF387
:105A10006F8FFEE7606BA16B6163A063206A401C1F
:105A20002062FEF7CDFFA06ADFF87080864209D3BE
:105A3000606B006880B1606BC068C568686886424A
:105A40000DD2A0622068C06A00EB800158F82100E6
:105A50000128CAD90127C8E74FF0FF30F1E7281D18
:105A6000FFF7F7F9A86A18B105F11800FFF7F1F987
:105A7000E86A0121226981401143216100EB800124
:105A800008EB8100291DFFF71CFAE86A2168C96A42
:105A90008842CDD30127CBE7CC0000202C06002084
:105AA00070B504004FF0000140D0214D28688442B9
:105AB00007D0502080F31188BFF34F8FBFF36F8F53
:105AC000FEE7A06C38B1401EA064636CE26A9A42A3
:105AD0002CD040B12AE0502080F31188BFF34F8FC3
